{
  "_format": "hh-sol-artifact-1",
  "contractName": "DataProvider",
  "sourceName": "contracts/DataProvider/DataProvider.sol",
  "abi": [
    {
      "inputs": [
        {
          "internalType": "contract ILendingPoolAddressesProvider",
          "name": "addressesProvider",
          "type": "address"
        }
      ],
      "stateMutability": "nonpayable",
      "type": "constructor"
    },
    {
      "inputs": [],
      "name": "ADDRESSES_PROVIDER",
      "outputs": [
        {
          "internalType": "contract ILendingPoolAddressesProvider",
          "name": "",
          "type": "address"
        }
      ],
      "stateMutability": "view",
      "type": "function"
    },
    {
      "inputs": [],
      "name": "getAddressesProvider",
      "outputs": [
        {
          "internalType": "contract ILendingPoolAddressesProvider",
          "name": "",
          "type": "address"
        }
      ],
      "stateMutability": "view",
      "type": "function"
    },
    {
      "inputs": [
        {
          "internalType": "uint256",
          "name": "id",
          "type": "uint256"
        }
      ],
      "name": "getAllATokens",
      "outputs": [
        {
          "components": [
            {
              "internalType": "string",
              "name": "symbol",
              "type": "string"
            },
            {
              "internalType": "address",
              "name": "tokenAddress",
              "type": "address"
            }
          ],
          "internalType": "struct IDataProvider.TokenData[]",
          "name": "",
          "type": "tuple[]"
        }
      ],
      "stateMutability": "view",
      "type": "function"
    },
    {
      "inputs": [],
      "name": "getAllPoolData",
      "outputs": [
        {
          "components": [
            {
              "internalType": "address",
              "name": "pool",
              "type": "address"
            },
            {
              "internalType": "uint256",
              "name": "id",
              "type": "uint256"
            },
            {
              "internalType": "string",
              "name": "name",
              "type": "string"
            },
            {
              "internalType": "bool",
              "name": "paused",
              "type": "bool"
            }
          ],
          "internalType": "struct IDataProvider.PoolData[]",
          "name": "",
          "type": "tuple[]"
        }
      ],
      "stateMutability": "view",
      "type": "function"
    },
    {
      "inputs": [
        {
          "internalType": "uint256",
          "name": "id",
          "type": "uint256"
        }
      ],
      "name": "getAllReserveData",
      "outputs": [
        {
          "components": [
            {
              "components": [
                {
                  "internalType": "uint256",
                  "name": "ltv",
                  "type": "uint256"
                },
                {
                  "internalType": "uint256",
                  "name": "liquidationThreshold",
                  "type": "uint256"
                },
                {
                  "internalType": "uint256",
                  "name": "liquidationBonus",
                  "type": "uint256"
                },
                {
                  "internalType": "uint8",
                  "name": "decimals",
                  "type": "uint8"
                },
                {
                  "internalType": "bool",
                  "name": "active",
                  "type": "bool"
                },
                {
                  "internalType": "bool",
                  "name": "frozen",
                  "type": "bool"
                },
                {
                  "internalType": "bool",
                  "name": "borrowingEnabled",
                  "type": "bool"
                },
                {
                  "internalType": "uint256",
                  "name": "reserveFactor",
                  "type": "uint256"
                }
              ],
              "internalType": "struct DataTypes.ReserveConfiguration",
              "name": "configuration",
              "type": "tuple"
            },
            {
              "internalType": "uint128",
              "name": "liquidityIndex",
              "type": "uint128"
            },
            {
              "internalType": "uint128",
              "name": "borrowIndex",
              "type": "uint128"
            },
            {
              "internalType": "uint128",
              "name": "currentLiquidityRate",
              "type": "uint128"
            },
            {
              "internalType": "uint128",
              "name": "currentBorrowRate",
              "type": "uint128"
            },
            {
              "internalType": "uint40",
              "name": "lastUpdateTimestamp",
              "type": "uint40"
            },
            {
              "internalType": "address",
              "name": "kTokenAddress",
              "type": "address"
            },
            {
              "internalType": "address",
              "name": "dTokenAddress",
              "type": "address"
            },
            {
              "internalType": "address",
              "name": "interestRateStrategyAddress",
              "type": "address"
            },
            {
              "internalType": "uint256",
              "name": "id",
              "type": "uint256"
            }
          ],
          "internalType": "struct DataTypes.ReserveData[]",
          "name": "",
          "type": "tuple[]"
        }
      ],
      "stateMutability": "view",
      "type": "function"
    },
    {
      "inputs": [
        {
          "internalType": "uint256",
          "name": "id",
          "type": "uint256"
        }
      ],
      "name": "getAllReservesTokens",
      "outputs": [
        {
          "components": [
            {
              "internalType": "string",
              "name": "symbol",
              "type": "string"
            },
            {
              "internalType": "address",
              "name": "tokenAddress",
              "type": "address"
            }
          ],
          "internalType": "struct IDataProvider.TokenData[]",
          "name": "",
          "type": "tuple[]"
        }
      ],
      "stateMutability": "view",
      "type": "function"
    },
    {
      "inputs": [
        {
          "internalType": "uint256",
          "name": "id",
          "type": "uint256"
        },
        {
          "internalType": "address",
          "name": "asset",
          "type": "address"
        }
      ],
      "name": "getReserveConfigurationData",
      "outputs": [
        {
          "components": [
            {
              "internalType": "uint256",
              "name": "ltv",
              "type": "uint256"
            },
            {
              "internalType": "uint256",
              "name": "liquidationThreshold",
              "type": "uint256"
            },
            {
              "internalType": "uint256",
              "name": "liquidationBonus",
              "type": "uint256"
            },
            {
              "internalType": "uint8",
              "name": "decimals",
              "type": "uint8"
            },
            {
              "internalType": "bool",
              "name": "active",
              "type": "bool"
            },
            {
              "internalType": "bool",
              "name": "frozen",
              "type": "bool"
            },
            {
              "internalType": "bool",
              "name": "borrowingEnabled",
              "type": "bool"
            },
            {
              "internalType": "uint256",
              "name": "reserveFactor",
              "type": "uint256"
            }
          ],
          "internalType": "struct DataTypes.ReserveConfiguration",
          "name": "configuration",
          "type": "tuple"
        }
      ],
      "stateMutability": "view",
      "type": "function"
    },
    {
      "inputs": [
        {
          "internalType": "uint256",
          "name": "id",
          "type": "uint256"
        },
        {
          "internalType": "address",
          "name": "asset",
          "type": "address"
        }
      ],
      "name": "getReserveData",
      "outputs": [
        {
          "components": [
            {
              "components": [
                {
                  "internalType": "uint256",
                  "name": "ltv",
                  "type": "uint256"
                },
                {
                  "internalType": "uint256",
                  "name": "liquidationThreshold",
                  "type": "uint256"
                },
                {
                  "internalType": "uint256",
                  "name": "liquidationBonus",
                  "type": "uint256"
                },
                {
                  "internalType": "uint8",
                  "name": "decimals",
                  "type": "uint8"
                },
                {
                  "internalType": "bool",
                  "name": "active",
                  "type": "bool"
                },
                {
                  "internalType": "bool",
                  "name": "frozen",
                  "type": "bool"
                },
                {
                  "internalType": "bool",
                  "name": "borrowingEnabled",
                  "type": "bool"
                },
                {
                  "internalType": "uint256",
                  "name": "reserveFactor",
                  "type": "uint256"
                }
              ],
              "internalType": "struct DataTypes.ReserveConfiguration",
              "name": "configuration",
              "type": "tuple"
            },
            {
              "internalType": "uint128",
              "name": "liquidityIndex",
              "type": "uint128"
            },
            {
              "internalType": "uint128",
              "name": "borrowIndex",
              "type": "uint128"
            },
            {
              "internalType": "uint128",
              "name": "currentLiquidityRate",
              "type": "uint128"
            },
            {
              "internalType": "uint128",
              "name": "currentBorrowRate",
              "type": "uint128"
            },
            {
              "internalType": "uint40",
              "name": "lastUpdateTimestamp",
              "type": "uint40"
            },
            {
              "internalType": "address",
              "name": "kTokenAddress",
              "type": "address"
            },
            {
              "internalType": "address",
              "name": "dTokenAddress",
              "type": "address"
            },
            {
              "internalType": "address",
              "name": "interestRateStrategyAddress",
              "type": "address"
            },
            {
              "internalType": "uint256",
              "name": "id",
              "type": "uint256"
            }
          ],
          "internalType": "struct DataTypes.ReserveData",
          "name": "",
          "type": "tuple"
        }
      ],
      "stateMutability": "view",
      "type": "function"
    },
    {
      "inputs": [
        {
          "internalType": "uint256",
          "name": "id",
          "type": "uint256"
        },
        {
          "internalType": "address",
          "name": "asset",
          "type": "address"
        }
      ],
      "name": "getReserveTokensAddresses",
      "outputs": [
        {
          "internalType": "address",
          "name": "aTokenAddress",
          "type": "address"
        },
        {
          "internalType": "address",
          "name": "variableDebtTokenAddress",
          "type": "address"
        }
      ],
      "stateMutability": "view",
      "type": "function"
    },
    {
      "inputs": [
        {
          "internalType": "uint256",
          "name": "id",
          "type": "uint256"
        },
        {
          "internalType": "address",
          "name": "trader",
          "type": "address"
        }
      ],
      "name": "getTraderPositions",
      "outputs": [
        {
          "components": [
            {
              "internalType": "address",
              "name": "traderAddress",
              "type": "address"
            },
            {
              "internalType": "address",
              "name": "collateralTokenAddress",
              "type": "address"
            },
            {
              "internalType": "address",
              "name": "shortTokenAddress",
              "type": "address"
            },
            {
              "internalType": "address",
              "name": "longTokenAddress",
              "type": "address"
            },
            {
              "internalType": "uint256",
              "name": "collateralAmount",
              "type": "uint256"
            },
            {
              "internalType": "uint256",
              "name": "shortAmount",
              "type": "uint256"
            },
            {
              "internalType": "uint256",
              "name": "longAmount",
              "type": "uint256"
            },
            {
              "internalType": "uint256",
              "name": "liquidationThreshold",
              "type": "uint256"
            },
            {
              "internalType": "uint256",
              "name": "id",
              "type": "uint256"
            },
            {
              "internalType": "bool",
              "name": "isOpen",
              "type": "bool"
            }
          ],
          "internalType": "struct DataTypes.TraderPosition[]",
          "name": "positions",
          "type": "tuple[]"
        }
      ],
      "stateMutability": "view",
      "type": "function"
    },
    {
      "inputs": [
        {
          "internalType": "uint256",
          "name": "id",
          "type": "uint256"
        },
        {
          "internalType": "address",
          "name": "asset",
          "type": "address"
        },
        {
          "internalType": "address",
          "name": "user",
          "type": "address"
        }
      ],
      "name": "getUserReserveData",
      "outputs": [
        {
          "internalType": "uint256",
          "name": "currentKTokenBalance",
          "type": "uint256"
        },
        {
          "internalType": "uint256",
          "name": "currentVariableDebt",
          "type": "uint256"
        },
        {
          "internalType": "uint256",
          "name": "scaledVariableDebt",
          "type": "uint256"
        },
        {
          "internalType": "uint256",
          "name": "liquidityRate",
          "type": "uint256"
        },
        {
          "internalType": "bool",
          "name": "usageAsCollateralEnabled",
          "type": "bool"
        }
      ],
      "stateMutability": "view",
      "type": "function"
    }
  ],
  "bytecode": "0x60a060405234801561001057600080fd5b50604051611f7a380380611f7a83398101604081905261002f91610040565b6001600160a01b0316608052610070565b60006020828403121561005257600080fd5b81516001600160a01b038116811461006957600080fd5b9392505050565b608051611ea36100d76000396000818160a3015281816102150152818161025a0152818161036e0152818161062c0152818161073c0152818161097301528181610ac401528181610c6901528181610f6b015281816110a601526111ab0152611ea36000f3fe608060405234801561001057600080fd5b50600436106100995760003560e01c80630542975c1461009e5780631da35081146100db578063352b94d9146100fb5780635a591f591461011b57806384d0a4cb1461013b57806399f283d71461014e578063b21f3e1814610163578063dd46b47c146101a0578063e30de061146101d3578063fd109d95146101f3578063fe65acfe14610213575b600080fd5b6100c57f000000000000000000000000000000000000000000000000000000000000000081565b6040516100d2919061144a565b60405180910390f35b6100ee6100e9366004611476565b610239565b6040516100d291906115d7565b61010e6101093660046115e6565b61034a565b6040516100d2919061165b565b61012e610129366004611476565b61060b565b6040516100d291906116da565b61010e6101493660046115e6565b610718565b61015661096d565b6040516100d291906116e9565b610176610171366004611774565b610c5e565b6040805195865260208601949094529284019190915260608301521515608082015260a0016100d2565b6101b36101ae366004611476565b610f64565b604080516001600160a01b039384168152929091166020830152016100d2565b6101e66101e1366004611476565b611082565b6040516100d291906117b6565b6102066102013660046115e6565b611187565b6040516100d2919061187e565b7f00000000000000000000000000000000000000000000000000000000000000006100c5565b6102416113a1565b604051630706547d60e21b8152600481018490526000907f00000000000000000000000000000000000000000000000000000000000000006001600160a01b031690631c1951f4906024016040805180830381865afa1580156102a8573d6000803e3d6000fd5b505050506040513d601f19601f820116820180604052508101906102cc91906118ed565b5090506000816001600160a01b03166335ea6a75856040518263ffffffff1660e01b81526004016102fd919061144a565b61022060405180830381865afa15801561031b573d6000803e3d6000fd5b505050506040513d601f19601f8201168201806040525081019061033f9190611a71565b925050505b92915050565b604051630706547d60e21b8152600481018290526060906000906001600160a01b037f00000000000000000000000000000000000000000000000000000000000000001690631c1951f4906024016040805180830381865afa1580156103b4573d6000803e3d6000fd5b505050506040513d601f19601f820116820180604052508101906103d891906118ed565b50905060008190506000816001600160a01b031663d1946dbc6040518163ffffffff1660e01b8152600401600060405180830381865afa158015610420573d6000803e3d6000fd5b505050506040513d6000823e601f3d908101601f191682016040526104489190810190611b62565b9050600081516001600160401b0381111561046557610465611922565b6040519080825280602002602001820160405280156104ab57816020015b6040805180820190915260608152600060208201528152602001906001900390816104835790505b50905060005b8251811015610601576000846001600160a01b03166335ea6a758584815181106104dd576104dd611c00565b60200260200101516040518263ffffffff1660e01b8152600401610501919061144a565b61022060405180830381865afa15801561051f573d6000803e3d6000fd5b505050506040513d601f19601f820116820180604052508101906105439190611a71565b905060405180604001604052808260c001516001600160a01b03166395d89b416040518163ffffffff1660e01b8152600401600060405180830381865afa158015610592573d6000803e3d6000fd5b505050506040513d6000823e601f3d908101601f191682016040526105ba9190810190611c16565b81526020018260c001516001600160a01b03168152508383815181106105e2576105e2611c00565b60200260200101819052505080806105f990611ca9565b9150506104b1565b5095945050505050565b6106136113fc565b604051630706547d60e21b8152600481018490526000907f00000000000000000000000000000000000000000000000000000000000000006001600160a01b031690631c1951f4906024016040805180830381865afa15801561067a573d6000803e3d6000fd5b505050506040513d601f19601f8201168201806040525081019061069e91906118ed565b5060405163c44b11f760e01b81529091506001600160a01b0382169063c44b11f7906106ce90869060040161144a565b61010060405180830381865afa1580156106ec573d6000803e3d6000fd5b505050506040513d601f19601f820116820180604052508101906107109190611cd0565b949350505050565b604051630706547d60e21b8152600481018290526060906000906001600160a01b037f00000000000000000000000000000000000000000000000000000000000000001690631c1951f4906024016040805180830381865afa158015610782573d6000803e3d6000fd5b505050506040513d601f19601f820116820180604052508101906107a691906118ed565b50905060008190506000816001600160a01b031663d1946dbc6040518163ffffffff1660e01b8152600401600060405180830381865afa1580156107ee573d6000803e3d6000fd5b505050506040513d6000823e601f3d908101601f191682016040526108169190810190611b62565b9050600081516001600160401b0381111561083357610833611922565b60405190808252806020026020018201604052801561087957816020015b6040805180820190915260608152600060208201528152602001906001900390816108515790505b50905060005b82518110156106015760405180604001604052808483815181106108a5576108a5611c00565b60200260200101516001600160a01b03166395d89b416040518163ffffffff1660e01b8152600401600060405180830381865afa1580156108ea573d6000803e3d6000fd5b505050506040513d6000823e601f3d908101601f191682016040526109129190810190611c16565b815260200184838151811061092957610929611c00565b60200260200101516001600160a01b031681525082828151811061094f5761094f611c00565b6020026020010181905250808061096590611ca9565b91505061087f565b606060007f00000000000000000000000000000000000000000000000000000000000000006001600160a01b031663d88ff1f46040518163ffffffff1660e01b8152600401600060405180830381865afa1580156109cf573d6000803e3d6000fd5b505050506040513d6000823e601f3d908101601f191682016040526109f79190810190611b62565b9050600081516001600160401b03811115610a1457610a14611922565b604051908082528060200260200182016040528015610a7b57816020015b610a68604051806080016040528060006001600160a01b0316815260200160008152602001606081526020016000151581525090565b815260200190600190039081610a325790505b50905060005b8251811015610c57576000838281518110610a9e57610a9e611c00565b602002602001015190506040518060800160405280826001600160a01b031681526020017f00000000000000000000000000000000000000000000000000000000000000006001600160a01b031663d459377d846040518263ffffffff1660e01b8152600401610b0e919061144a565b602060405180830381865afa158015610b2b573d6000803e3d6000fd5b505050506040513d601f19601f82011682018060405250810190610b4f9190611cf4565b8152602001826001600160a01b03166306fdde036040518163ffffffff1660e01b8152600401600060405180830381865afa158015610b92573d6000803e3d6000fd5b505050506040513d6000823e601f3d908101601f19168201604052610bba9190810190611c16565b8152602001826001600160a01b0316635c975abb6040518163ffffffff1660e01b8152600401602060405180830381865afa158015610bfd573d6000803e3d6000fd5b505050506040513d601f19601f82011682018060405250810190610c219190611d0d565b1515815250838381518110610c3857610c38611c00565b6020026020010181905250508080610c4f90611ca9565b915050610a81565b5092915050565b6000806000806000807f00000000000000000000000000000000000000000000000000000000000000006001600160a01b0316631c1951f48a6040518263ffffffff1660e01b8152600401610cb591815260200190565b6040805180830381865afa158015610cd1573d6000803e3d6000fd5b505050506040513d601f19601f82011682018060405250810190610cf591906118ed565b5090506000816001600160a01b03166335ea6a758a6040518263ffffffff1660e01b8152600401610d26919061144a565b61022060405180830381865afa158015610d44573d6000803e3d6000fd5b505050506040513d601f19601f82011682018060405250810190610d689190611a71565b610120810151604051639a62d6b760e01b81526001600160a01b038b81166004830152602482019290925291925060009190841690639a62d6b7906044016040805180830381865afa158015610dc2573d6000803e3d6000fd5b505050506040513d601f19601f82011682018060405250810190610de69190611d28565b5060c08301516040516370a0823160e01b81529192506001600160a01b0316906370a0823190610e1a908c9060040161144a565b602060405180830381865afa158015610e37573d6000803e3d6000fd5b505050506040513d601f19601f82011682018060405250810190610e5b9190611cf4565b60e08301516040516370a0823160e01b81529199506001600160a01b0316906370a0823190610e8e908c9060040161144a565b602060405180830381865afa158015610eab573d6000803e3d6000fd5b505050506040513d601f19601f82011682018060405250810190610ecf9190611cf4565b60e0830151604051630ed1279f60e11b81529198506001600160a01b031690631da24f3e90610f02908c9060040161144a565b602060405180830381865afa158015610f1f573d6000803e3d6000fd5b505050506040513d601f19601f82011682018060405250810190610f439190611cf4565b606090920151979b969a509098506001600160801b03909616965050505050565b60008060007f00000000000000000000000000000000000000000000000000000000000000006001600160a01b0316631c1951f4866040518263ffffffff1660e01b8152600401610fb791815260200190565b6040805180830381865afa158015610fd3573d6000803e3d6000fd5b505050506040513d601f19601f82011682018060405250810190610ff791906118ed565b5090506000816001600160a01b03166335ea6a75866040518263ffffffff1660e01b8152600401611028919061144a565b61022060405180830381865afa158015611046573d6000803e3d6000fd5b505050506040513d601f19601f8201168201806040525081019061106a9190611a71565b60c081015160e0909101519097909650945050505050565b604051630706547d60e21b8152600481018390526060906000906001600160a01b037f00000000000000000000000000000000000000000000000000000000000000001690631c1951f4906024016040805180830381865afa1580156110ec573d6000803e3d6000fd5b505050506040513d601f19601f8201168201806040525081019061111091906118ed565b50604051635fbbb2ff60e01b815290915081906001600160a01b03821690635fbbb2ff9061114290879060040161144a565b600060405180830381865afa15801561115f573d6000803e3d6000fd5b505050506040513d6000823e601f3d908101601f1916820160405261033f9190810190611d44565b604051630706547d60e21b8152600481018290526060906000906001600160a01b037f00000000000000000000000000000000000000000000000000000000000000001690631c1951f4906024016040805180830381865afa1580156111f1573d6000803e3d6000fd5b505050506040513d601f19601f8201168201806040525081019061121591906118ed565b50905060008190506000816001600160a01b031663d1946dbc6040518163ffffffff1660e01b8152600401600060405180830381865afa15801561125d573d6000803e3d6000fd5b505050506040513d6000823e601f3d908101601f191682016040526112859190810190611b62565b9050600081516001600160401b038111156112a2576112a2611922565b6040519080825280602002602001820160405280156112db57816020015b6112c86113a1565b8152602001906001900390816112c05790505b50905060005b825181101561060157836001600160a01b03166335ea6a7584838151811061130b5761130b611c00565b60200260200101516040518263ffffffff1660e01b815260040161132f919061144a565b61022060405180830381865afa15801561134d573d6000803e3d6000fd5b505050506040513d601f19601f820116820180604052508101906113719190611a71565b82828151811061138357611383611c00565b6020026020010181905250808061139990611ca9565b9150506112e1565b6040518061014001604052806113b56113fc565b815260006020820181905260408201819052606082018190526080820181905260a0820181905260c0820181905260e0820181905261010082018190526101209091015290565b604051806101000160405280600081526020016000815260200160008152602001600060ff168152602001600015158152602001600015158152602001600015158152602001600081525090565b6001600160a01b0391909116815260200190565b6001600160a01b038116811461147357600080fd5b50565b6000806040838503121561148957600080fd5b82359150602083013561149b8161145e565b809150509250929050565b80518252602081015160208301526040810151604083015260ff606082015116606083015260808101511515608083015260a0810151151560a083015260c0810151151560c083015260e081015160e08301525050565b6001600160801b03169052565b6001600160a01b03169052565b6115228282516114a6565b6020810151610100611536818501836114fd565b6040830151915061012061154c818601846114fd565b606084015192506115616101408601846114fd565b608084015192506115766101608601846114fd565b60a084015164ffffffffff1661018086015260c0840151925061159d6101a086018461150a565b60e084015192506115b26101c086018461150a565b8184015192506115c66101e086018461150a565b808401516102008601525050505050565b61022081016103448284611517565b6000602082840312156115f857600080fd5b5035919050565b60005b8381101561161a578181015183820152602001611602565b83811115611629576000848401525b50505050565b600081518084526116478160208601602086016115ff565b601f01601f19169290920160200192915050565b60006020808301818452808551808352604092508286019150828160051b87010184880160005b838110156116cc57888303603f19018552815180518785526116a68886018261162f565b918901516001600160a01b03169489019490945294870194925090860190600101611682565b509098975050505050505050565b610100810161034482846114a6565b60006020808301818452808551808352604092508286019150828160051b87010184880160005b838110156116cc57888303603f19018552815180516001600160a01b031684528781015188850152868101516080888601819052906117518287018261162f565b606093840151151596909301959095525094870194925090860190600101611710565b60008060006060848603121561178957600080fd5b83359250602084013561179b8161145e565b915060408401356117ab8161145e565b809150509250925092565b602080825282518282018190526000919060409081850190868401855b828110156118715781516117e885825161150a565b868101516117f88887018261150a565b50858101516118098787018261150a565b5060608082015161181c8288018261150a565b50506080818101519086015260a0808201519086015260c0808201519086015260e0808201519086015261010080820151908601526101209081015115159085015261014090930192908501906001016117d3565b5091979650505050505050565b6020808252825182820181905260009190848201906040850190845b818110156118c1576118ad838551611517565b92840192610220929092019160010161189a565b50909695505050505050565b80516118d88161145e565b919050565b805180151581146118d857600080fd5b6000806040838503121561190057600080fd5b825161190b8161145e565b9150611919602084016118dd565b90509250929050565b634e487b7160e01b600052604160045260246000fd5b60405161010081016001600160401b038111828210171561195b5761195b611922565b60405290565b60405161014081016001600160401b038111828210171561195b5761195b611922565b604051601f8201601f191681016001600160401b03811182821017156119ac576119ac611922565b604052919050565b600061010082840312156119c757600080fd5b6119cf611938565b9050815181526020820151602082015260408201516040820152606082015160ff811681146119fd57600080fd5b6060820152611a0e608083016118dd565b6080820152611a1f60a083016118dd565b60a0820152611a3060c083016118dd565b60c082015260e082015160e082015292915050565b80516001600160801b03811681146118d857600080fd5b805164ffffffffff811681146118d857600080fd5b60006102208284031215611a8457600080fd5b611a8c611961565b611a9684846119b4565b8152610100611aa6818501611a45565b6020830152610120611ab9818601611a45565b6040840152611acb6101408601611a45565b6060840152611add6101608601611a45565b6080840152611aef6101808601611a5c565b60a0840152611b016101a086016118cd565b60c0840152611b136101c086016118cd565b60e0840152611b256101e086016118cd565b828401526102008501518184015250508091505092915050565b60006001600160401b03821115611b5857611b58611922565b5060051b60200190565b60006020808385031215611b7557600080fd5b82516001600160401b03811115611b8b57600080fd5b8301601f81018513611b9c57600080fd5b8051611baf611baa82611b3f565b611984565b81815260059190911b82018301908381019087831115611bce57600080fd5b928401925b82841015611bf5578351611be68161145e565b82529284019290840190611bd3565b979650505050505050565b634e487b7160e01b600052603260045260246000fd5b600060208284031215611c2857600080fd5b81516001600160401b0380821115611c3f57600080fd5b818401915084601f830112611c5357600080fd5b815181811115611c6557611c65611922565b611c78601f8201601f1916602001611984565b9150808252856020828501011115611c8f57600080fd5b611ca08160208401602086016115ff565b50949350505050565b600060018201611cc957634e487b7160e01b600052601160045260246000fd5b5060010190565b60006101008284031215611ce357600080fd5b611ced83836119b4565b9392505050565b600060208284031215611d0657600080fd5b5051919050565b600060208284031215611d1f57600080fd5b611ced826118dd565b60008060408385031215611d3b57600080fd5b61190b836118dd565b60006020808385031215611d5757600080fd5b82516001600160401b03811115611d6d57600080fd5b8301601f81018513611d7e57600080fd5b8051611d8c611baa82611b3f565b8181526101409182028301840191848201919088841115611dac57600080fd5b938501935b83851015611e615780858a031215611dc95760008081fd5b611dd1611961565b611dda866118cd565b8152611de78787016118cd565b878201526040611df88188016118cd565b908201526060611e098782016118cd565b908201526080868101519082015260a0808701519082015260c0808701519082015260e080870151908201526101008087015190820152610120611e4e8188016118dd565b9082015283529384019391850191611db1565b5097965050505050505056fea2646970667358221220899de0e4e9bd95fdf9318ed01dfa8b4f135903eb5c630e42ab8b8d1267086dfb64736f6c634300080e0033",
  "linkReferences": {},
  "deployedLinkReferences": {}
}