{
  "_format": "hh-sol-artifact-1",
  "contractName": "LendingPool",
  "sourceName": "contracts/Pool/LendingPool.sol",
  "abi": [
    {
      "inputs": [
        {
          "internalType": "contract ILendingPoolAddressesProvider",
          "name": "provider",
          "type": "address"
        },
        {
          "internalType": "string",
          "name": "poolName",
          "type": "string"
        }
      ],
      "stateMutability": "nonpayable",
      "type": "constructor"
    },
    {
      "anonymous": false,
      "inputs": [
        {
          "indexed": true,
          "internalType": "address",
          "name": "reserve",
          "type": "address"
        },
        {
          "indexed": false,
          "internalType": "address",
          "name": "user",
          "type": "address"
        },
        {
          "indexed": true,
          "internalType": "address",
          "name": "onBehalfOf",
          "type": "address"
        },
        {
          "indexed": false,
          "internalType": "uint256",
          "name": "amount",
          "type": "uint256"
        },
        {
          "indexed": false,
          "internalType": "uint256",
          "name": "borrowRateMode",
          "type": "uint256"
        },
        {
          "indexed": false,
          "internalType": "uint256",
          "name": "borrowRate",
          "type": "uint256"
        }
      ],
      "name": "Borrow",
      "type": "event"
    },
    {
      "anonymous": false,
      "inputs": [
        {
          "indexed": false,
          "internalType": "uint256",
          "name": "id",
          "type": "uint256"
        },
        {
          "indexed": false,
          "internalType": "address",
          "name": "traderAddress",
          "type": "address"
        },
        {
          "indexed": false,
          "internalType": "address",
          "name": "collateralTokenAddress",
          "type": "address"
        },
        {
          "indexed": false,
          "internalType": "uint256",
          "name": "collateralAmount",
          "type": "uint256"
        },
        {
          "indexed": false,
          "internalType": "address",
          "name": "shortTokenAddress",
          "type": "address"
        },
        {
          "indexed": false,
          "internalType": "uint256",
          "name": "shortAmount",
          "type": "uint256"
        }
      ],
      "name": "ClosePosition",
      "type": "event"
    },
    {
      "anonymous": false,
      "inputs": [
        {
          "indexed": true,
          "internalType": "address",
          "name": "reserve",
          "type": "address"
        },
        {
          "indexed": false,
          "internalType": "address",
          "name": "user",
          "type": "address"
        },
        {
          "indexed": true,
          "internalType": "address",
          "name": "onBehalfOf",
          "type": "address"
        },
        {
          "indexed": false,
          "internalType": "uint256",
          "name": "amount",
          "type": "uint256"
        }
      ],
      "name": "Deposit",
      "type": "event"
    },
    {
      "anonymous": false,
      "inputs": [
        {
          "indexed": true,
          "internalType": "address",
          "name": "collateralAsset",
          "type": "address"
        },
        {
          "indexed": true,
          "internalType": "address",
          "name": "debtAsset",
          "type": "address"
        },
        {
          "indexed": true,
          "internalType": "address",
          "name": "user",
          "type": "address"
        },
        {
          "indexed": false,
          "internalType": "uint256",
          "name": "debtToCover",
          "type": "uint256"
        },
        {
          "indexed": false,
          "internalType": "uint256",
          "name": "liquidatedCollateralAmount",
          "type": "uint256"
        },
        {
          "indexed": false,
          "internalType": "address",
          "name": "liquidator",
          "type": "address"
        },
        {
          "indexed": false,
          "internalType": "bool",
          "name": "receiveAToken",
          "type": "bool"
        }
      ],
      "name": "LiquidationCall",
      "type": "event"
    },
    {
      "anonymous": false,
      "inputs": [
        {
          "indexed": false,
          "internalType": "uint256",
          "name": "id",
          "type": "uint256"
        },
        {
          "indexed": false,
          "internalType": "address",
          "name": "liquidator",
          "type": "address"
        },
        {
          "indexed": false,
          "internalType": "address",
          "name": "traderAddress",
          "type": "address"
        },
        {
          "indexed": false,
          "internalType": "address",
          "name": "collateralTokenAddress",
          "type": "address"
        },
        {
          "indexed": false,
          "internalType": "uint256",
          "name": "collateralAmount",
          "type": "uint256"
        },
        {
          "indexed": false,
          "internalType": "address",
          "name": "shortTokenAddress",
          "type": "address"
        },
        {
          "indexed": false,
          "internalType": "uint256",
          "name": "shortAmount",
          "type": "uint256"
        }
      ],
      "name": "LiquidationCallPosition",
      "type": "event"
    },
    {
      "anonymous": false,
      "inputs": [
        {
          "indexed": false,
          "internalType": "address",
          "name": "trader",
          "type": "address"
        },
        {
          "indexed": false,
          "internalType": "address",
          "name": "collateralTokenAddress",
          "type": "address"
        },
        {
          "indexed": false,
          "internalType": "address",
          "name": "shortTokenAddress",
          "type": "address"
        },
        {
          "indexed": false,
          "internalType": "uint256",
          "name": "collateralAmount",
          "type": "uint256"
        },
        {
          "indexed": false,
          "internalType": "uint256",
          "name": "shortAmount",
          "type": "uint256"
        },
        {
          "indexed": false,
          "internalType": "uint256",
          "name": "liquidationThreshold",
          "type": "uint256"
        },
        {
          "indexed": false,
          "internalType": "uint256",
          "name": "id",
          "type": "uint256"
        }
      ],
      "name": "OpenPosition",
      "type": "event"
    },
    {
      "anonymous": false,
      "inputs": [],
      "name": "Paused",
      "type": "event"
    },
    {
      "anonymous": false,
      "inputs": [
        {
          "indexed": true,
          "internalType": "address",
          "name": "reserve",
          "type": "address"
        },
        {
          "indexed": true,
          "internalType": "address",
          "name": "user",
          "type": "address"
        },
        {
          "indexed": true,
          "internalType": "address",
          "name": "repayer",
          "type": "address"
        },
        {
          "indexed": false,
          "internalType": "uint256",
          "name": "amount",
          "type": "uint256"
        }
      ],
      "name": "Repay",
      "type": "event"
    },
    {
      "anonymous": false,
      "inputs": [
        {
          "indexed": true,
          "internalType": "address",
          "name": "reserve",
          "type": "address"
        },
        {
          "indexed": false,
          "internalType": "uint256",
          "name": "liquidityRate",
          "type": "uint256"
        },
        {
          "indexed": false,
          "internalType": "uint256",
          "name": "stableBorrowRate",
          "type": "uint256"
        },
        {
          "indexed": false,
          "internalType": "uint256",
          "name": "variableBorrowRate",
          "type": "uint256"
        },
        {
          "indexed": false,
          "internalType": "uint256",
          "name": "liquidityIndex",
          "type": "uint256"
        },
        {
          "indexed": false,
          "internalType": "uint256",
          "name": "variableBorrowIndex",
          "type": "uint256"
        }
      ],
      "name": "ReserveDataUpdated",
      "type": "event"
    },
    {
      "anonymous": false,
      "inputs": [
        {
          "indexed": true,
          "internalType": "address",
          "name": "reserve",
          "type": "address"
        },
        {
          "indexed": true,
          "internalType": "address",
          "name": "user",
          "type": "address"
        }
      ],
      "name": "ReserveUsedAsCollateralDisabled",
      "type": "event"
    },
    {
      "anonymous": false,
      "inputs": [
        {
          "indexed": true,
          "internalType": "address",
          "name": "reserve",
          "type": "address"
        },
        {
          "indexed": true,
          "internalType": "address",
          "name": "user",
          "type": "address"
        }
      ],
      "name": "ReserveUsedAsCollateralEnabled",
      "type": "event"
    },
    {
      "anonymous": false,
      "inputs": [],
      "name": "Unpaused",
      "type": "event"
    },
    {
      "anonymous": false,
      "inputs": [
        {
          "indexed": true,
          "internalType": "address",
          "name": "reserve",
          "type": "address"
        },
        {
          "indexed": true,
          "internalType": "address",
          "name": "user",
          "type": "address"
        },
        {
          "indexed": true,
          "internalType": "address",
          "name": "to",
          "type": "address"
        },
        {
          "indexed": false,
          "internalType": "uint256",
          "name": "amount",
          "type": "uint256"
        }
      ],
      "name": "Withdraw",
      "type": "event"
    },
    {
      "inputs": [],
      "name": "MAX_LEVERAGE",
      "outputs": [
        {
          "internalType": "uint256",
          "name": "",
          "type": "uint256"
        }
      ],
      "stateMutability": "view",
      "type": "function"
    },
    {
      "inputs": [],
      "name": "MAX_NUMBER_RESERVES",
      "outputs": [
        {
          "internalType": "uint256",
          "name": "",
          "type": "uint256"
        }
      ],
      "stateMutability": "view",
      "type": "function"
    },
    {
      "inputs": [],
      "name": "POSITION_LIQUIDATION_THRESHOLD",
      "outputs": [
        {
          "internalType": "uint256",
          "name": "",
          "type": "uint256"
        }
      ],
      "stateMutability": "view",
      "type": "function"
    },
    {
      "inputs": [
        {
          "internalType": "address",
          "name": "asset",
          "type": "address"
        },
        {
          "internalType": "uint256",
          "name": "amount",
          "type": "uint256"
        },
        {
          "internalType": "uint256",
          "name": "interestRateMode",
          "type": "uint256"
        },
        {
          "internalType": "address",
          "name": "onBehalfOf",
          "type": "address"
        }
      ],
      "name": "borrow",
      "outputs": [],
      "stateMutability": "nonpayable",
      "type": "function"
    },
    {
      "inputs": [
        {
          "internalType": "uint256",
          "name": "id",
          "type": "uint256"
        }
      ],
      "name": "closePosition",
      "outputs": [
        {
          "internalType": "uint256",
          "name": "paymentAmount",
          "type": "uint256"
        },
        {
          "internalType": "int256",
          "name": "pnl",
          "type": "int256"
        }
      ],
      "stateMutability": "nonpayable",
      "type": "function"
    },
    {
      "inputs": [
        {
          "internalType": "address",
          "name": "asset",
          "type": "address"
        },
        {
          "internalType": "uint256",
          "name": "amount",
          "type": "uint256"
        },
        {
          "internalType": "address",
          "name": "onBehalfOf",
          "type": "address"
        }
      ],
      "name": "deposit",
      "outputs": [],
      "stateMutability": "nonpayable",
      "type": "function"
    },
    {
      "inputs": [
        {
          "internalType": "address",
          "name": "asset",
          "type": "address"
        },
        {
          "internalType": "address",
          "name": "from",
          "type": "address"
        },
        {
          "internalType": "address",
          "name": "to",
          "type": "address"
        },
        {
          "internalType": "uint256",
          "name": "amount",
          "type": "uint256"
        },
        {
          "internalType": "uint256",
          "name": "balanceFromBefore",
          "type": "uint256"
        },
        {
          "internalType": "uint256",
          "name": "balanceToBefore",
          "type": "uint256"
        }
      ],
      "name": "finalizeTransfer",
      "outputs": [],
      "stateMutability": "nonpayable",
      "type": "function"
    },
    {
      "inputs": [],
      "name": "getAddressesProvider",
      "outputs": [
        {
          "internalType": "contract ILendingPoolAddressesProvider",
          "name": "",
          "type": "address"
        }
      ],
      "stateMutability": "view",
      "type": "function"
    },
    {
      "inputs": [
        {
          "internalType": "address",
          "name": "asset",
          "type": "address"
        }
      ],
      "name": "getConfiguration",
      "outputs": [
        {
          "components": [
            {
              "internalType": "uint256",
              "name": "ltv",
              "type": "uint256"
            },
            {
              "internalType": "uint256",
              "name": "liquidationThreshold",
              "type": "uint256"
            },
            {
              "internalType": "uint256",
              "name": "liquidationBonus",
              "type": "uint256"
            },
            {
              "internalType": "uint8",
              "name": "decimals",
              "type": "uint8"
            },
            {
              "internalType": "bool",
              "name": "active",
              "type": "bool"
            },
            {
              "internalType": "bool",
              "name": "frozen",
              "type": "bool"
            },
            {
              "internalType": "bool",
              "name": "borrowingEnabled",
              "type": "bool"
            },
            {
              "internalType": "uint256",
              "name": "reserveFactor",
              "type": "uint256"
            }
          ],
          "internalType": "struct DataTypes.ReserveConfiguration",
          "name": "",
          "type": "tuple"
        }
      ],
      "stateMutability": "view",
      "type": "function"
    },
    {
      "inputs": [
        {
          "internalType": "uint256",
          "name": "id",
          "type": "uint256"
        }
      ],
      "name": "getPositionData",
      "outputs": [
        {
          "internalType": "int256",
          "name": "pnl",
          "type": "int256"
        },
        {
          "internalType": "uint256",
          "name": "healthFactor",
          "type": "uint256"
        }
      ],
      "stateMutability": "view",
      "type": "function"
    },
    {
      "inputs": [
        {
          "internalType": "address",
          "name": "asset",
          "type": "address"
        }
      ],
      "name": "getReserveData",
      "outputs": [
        {
          "components": [
            {
              "components": [
                {
                  "internalType": "uint256",
                  "name": "ltv",
                  "type": "uint256"
                },
                {
                  "internalType": "uint256",
                  "name": "liquidationThreshold",
                  "type": "uint256"
                },
                {
                  "internalType": "uint256",
                  "name": "liquidationBonus",
                  "type": "uint256"
                },
                {
                  "internalType": "uint8",
                  "name": "decimals",
                  "type": "uint8"
                },
                {
                  "internalType": "bool",
                  "name": "active",
                  "type": "bool"
                },
                {
                  "internalType": "bool",
                  "name": "frozen",
                  "type": "bool"
                },
                {
                  "internalType": "bool",
                  "name": "borrowingEnabled",
                  "type": "bool"
                },
                {
                  "internalType": "uint256",
                  "name": "reserveFactor",
                  "type": "uint256"
                }
              ],
              "internalType": "struct DataTypes.ReserveConfiguration",
              "name": "configuration",
              "type": "tuple"
            },
            {
              "internalType": "uint128",
              "name": "liquidityIndex",
              "type": "uint128"
            },
            {
              "internalType": "uint128",
              "name": "borrowIndex",
              "type": "uint128"
            },
            {
              "internalType": "uint128",
              "name": "currentLiquidityRate",
              "type": "uint128"
            },
            {
              "internalType": "uint128",
              "name": "currentBorrowRate",
              "type": "uint128"
            },
            {
              "internalType": "uint40",
              "name": "lastUpdateTimestamp",
              "type": "uint40"
            },
            {
              "internalType": "address",
              "name": "kTokenAddress",
              "type": "address"
            },
            {
              "internalType": "address",
              "name": "dTokenAddress",
              "type": "address"
            },
            {
              "internalType": "address",
              "name": "interestRateStrategyAddress",
              "type": "address"
            },
            {
              "internalType": "uint256",
              "name": "id",
              "type": "uint256"
            }
          ],
          "internalType": "struct DataTypes.ReserveData",
          "name": "",
          "type": "tuple"
        }
      ],
      "stateMutability": "view",
      "type": "function"
    },
    {
      "inputs": [
        {
          "internalType": "address",
          "name": "asset",
          "type": "address"
        }
      ],
      "name": "getReserveNormalizedDebt",
      "outputs": [
        {
          "internalType": "uint256",
          "name": "",
          "type": "uint256"
        }
      ],
      "stateMutability": "view",
      "type": "function"
    },
    {
      "inputs": [
        {
          "internalType": "address",
          "name": "asset",
          "type": "address"
        }
      ],
      "name": "getReserveNormalizedIncome",
      "outputs": [
        {
          "internalType": "uint256",
          "name": "",
          "type": "uint256"
        }
      ],
      "stateMutability": "view",
      "type": "function"
    },
    {
      "inputs": [],
      "name": "getReservesList",
      "outputs": [
        {
          "internalType": "address[]",
          "name": "",
          "type": "address[]"
        }
      ],
      "stateMutability": "view",
      "type": "function"
    },
    {
      "inputs": [
        {
          "internalType": "address",
          "name": "trader",
          "type": "address"
        }
      ],
      "name": "getTraderPositions",
      "outputs": [
        {
          "components": [
            {
              "internalType": "address",
              "name": "traderAddress",
              "type": "address"
            },
            {
              "internalType": "address",
              "name": "collateralTokenAddress",
              "type": "address"
            },
            {
              "internalType": "address",
              "name": "shortTokenAddress",
              "type": "address"
            },
            {
              "internalType": "address",
              "name": "longTokenAddress",
              "type": "address"
            },
            {
              "internalType": "uint256",
              "name": "collateralAmount",
              "type": "uint256"
            },
            {
              "internalType": "uint256",
              "name": "shortAmount",
              "type": "uint256"
            },
            {
              "internalType": "uint256",
              "name": "longAmount",
              "type": "uint256"
            },
            {
              "internalType": "uint256",
              "name": "liquidationThreshold",
              "type": "uint256"
            },
            {
              "internalType": "uint256",
              "name": "id",
              "type": "uint256"
            },
            {
              "internalType": "bool",
              "name": "isOpen",
              "type": "bool"
            }
          ],
          "internalType": "struct DataTypes.TraderPosition[]",
          "name": "positions",
          "type": "tuple[]"
        }
      ],
      "stateMutability": "view",
      "type": "function"
    },
    {
      "inputs": [],
      "name": "getTradersList",
      "outputs": [
        {
          "internalType": "address[]",
          "name": "",
          "type": "address[]"
        }
      ],
      "stateMutability": "view",
      "type": "function"
    },
    {
      "inputs": [
        {
          "internalType": "address",
          "name": "user",
          "type": "address"
        }
      ],
      "name": "getUserAccountData",
      "outputs": [
        {
          "internalType": "uint256",
          "name": "totalCollateralETH",
          "type": "uint256"
        },
        {
          "internalType": "uint256",
          "name": "totalDebtETH",
          "type": "uint256"
        },
        {
          "internalType": "uint256",
          "name": "availableBorrowsETH",
          "type": "uint256"
        },
        {
          "internalType": "uint256",
          "name": "currentLiquidationThreshold",
          "type": "uint256"
        },
        {
          "internalType": "uint256",
          "name": "ltv",
          "type": "uint256"
        },
        {
          "internalType": "uint256",
          "name": "healthFactor",
          "type": "uint256"
        }
      ],
      "stateMutability": "view",
      "type": "function"
    },
    {
      "inputs": [
        {
          "internalType": "address",
          "name": "user",
          "type": "address"
        },
        {
          "internalType": "uint256",
          "name": "id",
          "type": "uint256"
        }
      ],
      "name": "getUserConfiguration",
      "outputs": [
        {
          "internalType": "bool",
          "name": "",
          "type": "bool"
        },
        {
          "internalType": "bool",
          "name": "",
          "type": "bool"
        }
      ],
      "stateMutability": "view",
      "type": "function"
    },
    {
      "inputs": [],
      "name": "getUsersList",
      "outputs": [
        {
          "internalType": "address[]",
          "name": "",
          "type": "address[]"
        }
      ],
      "stateMutability": "view",
      "type": "function"
    },
    {
      "inputs": [
        {
          "internalType": "address",
          "name": "asset",
          "type": "address"
        },
        {
          "internalType": "address",
          "name": "kTokenAddress",
          "type": "address"
        },
        {
          "internalType": "address",
          "name": "dTokenAddress",
          "type": "address"
        },
        {
          "internalType": "address",
          "name": "interestRateStrategyAddress",
          "type": "address"
        }
      ],
      "name": "initReserve",
      "outputs": [],
      "stateMutability": "nonpayable",
      "type": "function"
    },
    {
      "inputs": [
        {
          "internalType": "address",
          "name": "collateralAsset",
          "type": "address"
        },
        {
          "internalType": "address",
          "name": "debtAsset",
          "type": "address"
        },
        {
          "internalType": "address",
          "name": "user",
          "type": "address"
        },
        {
          "internalType": "uint256",
          "name": "debtToCover",
          "type": "uint256"
        },
        {
          "internalType": "bool",
          "name": "receiveAToken",
          "type": "bool"
        }
      ],
      "name": "liquidationCall",
      "outputs": [],
      "stateMutability": "nonpayable",
      "type": "function"
    },
    {
      "inputs": [
        {
          "internalType": "uint256",
          "name": "id",
          "type": "uint256"
        }
      ],
      "name": "liquidationCallPosition",
      "outputs": [],
      "stateMutability": "nonpayable",
      "type": "function"
    },
    {
      "inputs": [],
      "name": "name",
      "outputs": [
        {
          "internalType": "string",
          "name": "",
          "type": "string"
        }
      ],
      "stateMutability": "view",
      "type": "function"
    },
    {
      "inputs": [
        {
          "internalType": "address",
          "name": "collateralAsset",
          "type": "address"
        },
        {
          "internalType": "address",
          "name": "shortAsset",
          "type": "address"
        },
        {
          "internalType": "address",
          "name": "longAsset",
          "type": "address"
        },
        {
          "internalType": "uint256",
          "name": "collateralAmount",
          "type": "uint256"
        },
        {
          "internalType": "uint256",
          "name": "leverage",
          "type": "uint256"
        }
      ],
      "name": "openPosition",
      "outputs": [
        {
          "components": [
            {
              "internalType": "address",
              "name": "traderAddress",
              "type": "address"
            },
            {
              "internalType": "address",
              "name": "collateralTokenAddress",
              "type": "address"
            },
            {
              "internalType": "address",
              "name": "shortTokenAddress",
              "type": "address"
            },
            {
              "internalType": "address",
              "name": "longTokenAddress",
              "type": "address"
            },
            {
              "internalType": "uint256",
              "name": "collateralAmount",
              "type": "uint256"
            },
            {
              "internalType": "uint256",
              "name": "shortAmount",
              "type": "uint256"
            },
            {
              "internalType": "uint256",
              "name": "longAmount",
              "type": "uint256"
            },
            {
              "internalType": "uint256",
              "name": "liquidationThreshold",
              "type": "uint256"
            },
            {
              "internalType": "uint256",
              "name": "id",
              "type": "uint256"
            },
            {
              "internalType": "bool",
              "name": "isOpen",
              "type": "bool"
            }
          ],
          "internalType": "struct DataTypes.TraderPosition",
          "name": "position",
          "type": "tuple"
        }
      ],
      "stateMutability": "nonpayable",
      "type": "function"
    },
    {
      "inputs": [],
      "name": "paused",
      "outputs": [
        {
          "internalType": "bool",
          "name": "",
          "type": "bool"
        }
      ],
      "stateMutability": "view",
      "type": "function"
    },
    {
      "inputs": [
        {
          "internalType": "address",
          "name": "asset",
          "type": "address"
        },
        {
          "internalType": "uint256",
          "name": "amount",
          "type": "uint256"
        },
        {
          "internalType": "uint256",
          "name": "rateMode",
          "type": "uint256"
        },
        {
          "internalType": "address",
          "name": "onBehalfOf",
          "type": "address"
        }
      ],
      "name": "repay",
      "outputs": [
        {
          "internalType": "uint256",
          "name": "",
          "type": "uint256"
        }
      ],
      "stateMutability": "nonpayable",
      "type": "function"
    },
    {
      "inputs": [
        {
          "internalType": "address",
          "name": "asset",
          "type": "address"
        },
        {
          "components": [
            {
              "internalType": "uint256",
              "name": "ltv",
              "type": "uint256"
            },
            {
              "internalType": "uint256",
              "name": "liquidationThreshold",
              "type": "uint256"
            },
            {
              "internalType": "uint256",
              "name": "liquidationBonus",
              "type": "uint256"
            },
            {
              "internalType": "uint8",
              "name": "decimals",
              "type": "uint8"
            },
            {
              "internalType": "bool",
              "name": "active",
              "type": "bool"
            },
            {
              "internalType": "bool",
              "name": "frozen",
              "type": "bool"
            },
            {
              "internalType": "bool",
              "name": "borrowingEnabled",
              "type": "bool"
            },
            {
              "internalType": "uint256",
              "name": "reserveFactor",
              "type": "uint256"
            }
          ],
          "internalType": "struct DataTypes.ReserveConfiguration",
          "name": "configuration",
          "type": "tuple"
        }
      ],
      "name": "setConfiguration",
      "outputs": [],
      "stateMutability": "nonpayable",
      "type": "function"
    },
    {
      "inputs": [
        {
          "internalType": "bool",
          "name": "val",
          "type": "bool"
        }
      ],
      "name": "setPause",
      "outputs": [],
      "stateMutability": "nonpayable",
      "type": "function"
    },
    {
      "inputs": [
        {
          "internalType": "address",
          "name": "asset",
          "type": "address"
        },
        {
          "internalType": "address",
          "name": "rateStrategyAddress",
          "type": "address"
        }
      ],
      "name": "setReserveInterestRateStrategyAddress",
      "outputs": [],
      "stateMutability": "nonpayable",
      "type": "function"
    },
    {
      "inputs": [
        {
          "internalType": "address",
          "name": "asset",
          "type": "address"
        },
        {
          "internalType": "bool",
          "name": "useAsCollateral",
          "type": "bool"
        }
      ],
      "name": "setUserUseReserveAsCollateral",
      "outputs": [],
      "stateMutability": "nonpayable",
      "type": "function"
    },
    {
      "inputs": [
        {
          "internalType": "address",
          "name": "asset",
          "type": "address"
        },
        {
          "internalType": "uint256",
          "name": "amount",
          "type": "uint256"
        },
        {
          "internalType": "address",
          "name": "to",
          "type": "address"
        }
      ],
      "name": "withdraw",
      "outputs": [
        {
          "internalType": "uint256",
          "name": "",
          "type": "uint256"
        }
      ],
      "stateMutability": "nonpayable",
      "type": "function"
    }
  ],
  "bytecode": "0x60806040523480156200001157600080fd5b5060405162005a9238038062005a9283398101604081905262000034916200014e565b600080546001600160a01b0319166001600160a01b0384161790556000196010556b409f9cbc7c4a04c2200000006013556a108b2a2c2802909400000060125580516200008990600190602084019062000092565b5050506200028a565b828054620000a0906200024e565b90600052602060002090601f016020900481019282620000c457600085556200010f565b82601f10620000df57805160ff19168380011785556200010f565b828001600101855582156200010f579182015b828111156200010f578251825591602001919060010190620000f2565b506200011d92915062000121565b5090565b5b808211156200011d576000815560010162000122565b634e487b7160e01b600052604160045260246000fd5b600080604083850312156200016257600080fd5b82516001600160a01b03811681146200017a57600080fd5b602084810151919350906001600160401b03808211156200019a57600080fd5b818601915086601f830112620001af57600080fd5b815181811115620001c457620001c462000138565b604051601f8201601f19908116603f01168101908382118183101715620001ef57620001ef62000138565b8160405282815289868487010111156200020857600080fd5b600093505b828410156200022c57848401860151818501870152928501926200020d565b828411156200023e5760008684830101525b8096505050505050509250929050565b600181811c908216806200026357607f821691505b6020821081036200028457634e487b7160e01b600052602260045260246000fd5b50919050565b6157f8806200029a6000396000f3fe608060405234801561001057600080fd5b50600436106101745760003560e01c8062a718a91461017957806306fdde031461018e5780630f415acb146101ac5780631d2118f9146101d457806322e953ac146101e757806335ea6a75146101fa5780633f4a408c1461021a578063573ade811461022f5780635a3b74b9146102505780635c975abb146102635780635fbbb2ff1461027957806369328dec146102995780638bd25677146102ac5780638ed08ba3146102bf5780639a62d6b7146102d25780639b45ec9714610334578063a126d6011461033c578063a1bdfe7b1461034f578063a5b7ba3214610357578063bedb86fb1461036a578063bf92857c1461037d578063c44b11f7146103bd578063c74e13f3146103dd578063c84555bd146103e5578063d15e0053146103f8578063d1946dbc1461040b578063d2ceba1f14610413578063d5ed393314610433578063f45346dc14610446578063f8119d5114610459578063fe65acfe14610461575b600080fd5b61018c610187366004614bfe565b61047a565b005b610196610681565b6040516101a39190614c92565b60405180910390f35b6101bf6101ba366004614cc5565b610713565b604080519283526020830191909152016101a3565b61018c6101e2366004614cde565b610938565b61018c6101f5366004614d17565b610971565b61020d610208366004614d61565b6109ec565b6040516101a39190614def565b610222610b12565b6040516101a39190614eba565b61024261023d366004614d17565b610bc8565b6040519081526020016101a3565b61018c61025e366004614f07565b610ec8565b600f5460ff1660405190151581526020016101a3565b61028c610287366004614d61565b611091565b6040516101a39190614fc1565b6102426102a7366004615004565b611209565b61018c6102ba366004615046565b611534565b61018c6102cd366004614cc5565b611613565b61031d6102e0366004615097565b6001600160a01b0391909116600090815260036020908152604080832093835283825280832054600190940190915290205460ff91821692911690565b6040805192151583529015156020830152016101a3565b601354610242565b6101bf61034a366004614cc5565b611818565b601254610242565b610242610365366004614d61565b611a1c565b61018c6103783660046150c3565b611a43565b61039061038b366004614d61565b611abd565b604080519687526020870195909552938501929092526060840152608083015260a082015260c0016101a3565b6103d06103cb366004614d61565b611b93565b6040516101a391906150e0565b610222611c23565b61018c6103f33660046150ef565b611cd3565b610242610406366004614d61565b611cff565b610222611d20565b610426610421366004615132565b611dd0565b6040516101a3919061518d565b61018c61044136600461519c565b612284565b61018c610454366004615004565b61246c565b601054610242565b6000546001600160a01b03166040516101a39190615201565b610482612684565b6001600160a01b038316301415610499602b6126b3565b906104c05760405162461bcd60e51b81526004016104b79190614c92565b60405180910390fd5b506000805460405163e0e8d3db60e01b81526001600160a01b039091169063e0e8d3db906104f2903090600401615201565b602060405180830381865afa15801561050f573d6000803e3d6000fd5b505050506040513d601f19601f820116820180604052508101906105339190615215565b6040516001600160a01b038881166024830152878116604483015286811660648301526084820186905284151560a483015291925060009182919084169060c40160408051601f198184030181529181526020820180516001600160e01b031662a718a960e01b179052516105a89190615232565b600060405180830381855af49150503d80600081146105e3576040519150601f19603f3d011682016040523d82523d6000602084013e6105e8565b606091505b5091509150816105f860116126b3565b906106165760405162461bcd60e51b81526004016104b79190614c92565b506000808280602001905181019061062e9190615264565b9150915081600014816040516020016106479190615232565b604051602081830303815290604052906106745760405162461bcd60e51b81526004016104b79190614c92565b5050505050505050505050565b6060600180546106909061531c565b80601f01602080910402602001604051908101604052809291908181526020018280546106bc9061531c565b80156107095780601f106106de57610100808354040283529160200191610709565b820191906000526020600020905b8154815290600101906020018083116106ec57829003601f168201915b5050505050905090565b600080600060046000858152602001908152602001600020905073__$4704719058cb47f66e81a2e55cafd4efea$__63f974324582600260008054906101000a90046001600160a01b03166001600160a01b031663fca513a86040518163ffffffff1660e01b8152600401602060405180830381865afa15801561079b573d6000803e3d6000fd5b505050506040513d601f19601f820116820180604052508101906107bf9190615215565b6040518463ffffffff1660e01b81526004016107dd93929190615350565b602060405180830381865af41580156107fa573d6000803e3d6000fd5b505050506040513d601f19601f8201168201806040525081019061081e919061536f565b925073__$4704719058cb47f66e81a2e55cafd4efea$__6371237ade82601254600260008054906101000a90046001600160a01b03166001600160a01b031663fca513a86040518163ffffffff1660e01b8152600401602060405180830381865afa158015610891573d6000803e3d6000fd5b505050506040513d601f19601f820116820180604052508101906108b59190615215565b6040516001600160e01b031960e087901b1681526004810194909452602484019290925260448301526001600160a01b03166064820152608401602060405180830381865af415801561090c573d6000803e3d6000fd5b505050506040513d601f19601f82011682018060405250810190610930919061536f565b915050915091565b6109406126cf565b6001600160a01b03918216600090815260026020526040902060090180546001600160a01b03191691909216179055565b610979612684565b6001600160a01b03808516600081815260026020908152604091829020825160e08101845293845233918401919091528484169183019190915260608201869052608082018590526007810154600160281b900490921660a0820152600160c08201526109e590612754565b5050505050565b6109f4614ab9565b506001600160a01b0390811660009081526002602081815260409283902083516102408101855281546101408201908152600183015461016083015293820154610180820152600382015460ff8082166101a0840152610100808304821615156101c0850152620100008304821615156101e08501526301000000909204161515610200830152600483015461022083015293815260058201546001600160801b0380821694830194909452600160801b9081900484169582019590955260068201548084166060830152949094049091166080840152600781015464ffffffffff811660a0850152600160281b9004841660c08401526008810154841660e0840152600981015490931690820152600a9091015461012082015290565b60606000600e546001600160401b03811115610b3057610b3061524e565b604051908082528060200260200182016040528015610b59578160200160208202803683370190505b50905060005b600e54811015610bc2576000818152600c602052604090205482516001600160a01b0390911690839083908110610b9857610b98615388565b6001600160a01b039092166020928302919091019091015280610bba816153b4565b915050610b5f565b50919050565b6000610bd2612684565b6001600160a01b03808616600090815260026020526040808220600881015491516370a0823160e01b8152909391909116906370a0823190610c18908790600401615201565b602060405180830381865afa158015610c35573d6000803e3d6000fd5b505050506040513d601f19601f82011682018060405250810190610c59919061536f565b90506000856001811115610c6f57610c6f6153cd565b604051636fff2fdf60e11b815290915073__$21c34b8e29a99d314827d472f0e1c85fe6$__9063dffe5fbe90610cb19086908b9086908b9089906004016153e3565b60006040518083038186803b158015610cc957600080fd5b505af4158015610cdd573d6000803e3d6000fd5b50849250505080881015610cee5750865b610cf784612b5d565b60088401546005850154604051637a94c56560e11b81526001600160a01b039092169163f5298aca91610d42918a918691600160801b9091046001600160801b031690600401615434565b600060405180830381600087803b158015610d5c57600080fd5b505af1158015610d70573d6000803e3d6000fd5b505050506007840154600160281b90046001600160a01b0316610d97858b83856000612c17565b610da18483612e71565b600003610ddb576001600160a01b0387166000908152600360209081526040808320600a89015484526001019091529020805460ff191690555b610df06001600160a01b038b16333085612e7d565b610e046001600160a01b038b168284612ee8565b6040516388dd91a160e01b81526001600160a01b038216906388dd91a190610e32903390869060040161545e565b600060405180830381600087803b158015610e4c57600080fd5b505af1158015610e60573d6000803e3d6000fd5b50505050336001600160a01b0316876001600160a01b03168b6001600160a01b03167f4cdde6e09bb755c9a5589ebaec640bbfedff1362d4b255ebf8339782b9942faa85604051610eb391815260200190565b60405180910390a45098975050505050505050565b610ed0612684565b6001600160a01b0380831660009081526002602081815260408084203385526003835281852060085495548351631f94a27560e31b81529351929773__$21c34b8e29a99d314827d472f0e1c85fe6$__97635fa297e5978a978d978d97929695600795169263fca513a8926004808401939192918290030181865afa158015610f5d573d6000803e3d6000fd5b505050506040513d601f19601f82011682018060405250810190610f819190615215565b6040516001600160e01b031960e08b901b16815260048101989098526001600160a01b03968716602489015294151560448801526064870193909352608486019190915260a485015260c48401521660e48201526101040160006040518083038186803b158015610ff157600080fd5b505af4158015611005573d6000803e3d6000fd5b5050336000908152600360209081526040808320600a87015484529091529020805460ff19168515801591909117909155915061106790505760405133906001600160a01b038516906000805160206157a383398151915290600090a3505050565b60405133906001600160a01b0385169060008051602061578383398151915290600090a35b505050565b6001600160a01b038116600090815260066020526040902054606090806001600160401b038111156110c5576110c561524e565b6040519080825280602002602001820160405280156110fe57816020015b6110eb614b14565b8152602001906001900390816110e35790505b50915060005b81811015611202576001600160a01b038416600090815260066020526040902080548290811061113657611136615388565b60009182526020918290206040805161014081018252600a90930290910180546001600160a01b039081168452600182015481169484019490945260028101548416918301919091526003810154909216606082015260048201546080820152600582015460a0820152600682015460c0820152600782015460e0820152600882015461010082015260099091015460ff16151561012082015283518490839081106111e4576111e4615388565b602002602001018190525080806111fa906153b4565b915050611104565b5050919050565b6000611213612684565b6001600160a01b03808516600090815260026020526040808220600781015491516370a0823160e01b81529093600160281b909204909116919082906370a0823190611263903390600401615201565b602060405180830381865afa158015611280573d6000803e3d6000fd5b505050506040513d601f19601f820116820180604052508101906112a4919061536f565b905085600181016112b25750805b73__$21c34b8e29a99d314827d472f0e1c85fe6$__63d09db04a898385600260036000336001600160a01b03166001600160a01b03168152602001908152602001600020600760085460008054906101000a90046001600160a01b03166001600160a01b031663fca513a86040518163ffffffff1660e01b8152600401602060405180830381865afa15801561134c573d6000803e3d6000fd5b505050506040513d601f19601f820116820180604052508101906113709190615215565b60405160e08a901b6001600160e01b03191681526001600160a01b039889166004820152602481019790975260448701959095526064860193909352608485019190915260a484015260c483015290911660e48201526101040160006040518083038186803b1580156113e257600080fd5b505af41580156113f6573d6000803e3d6000fd5b5050505061140384612b5d565b611411848985600085612c17565b81810361145d57336000818152600360209081526040808320600a8901548452909152808220805460ff19169055516001600160a01b038b169160008051602061578383398151915291a35b6005840154604051636b81068560e11b81526001600160a01b0385169163d7020d0a9161149e9133918b9187916001600160801b0390911690600401615477565b600060405180830381600087803b1580156114b857600080fd5b505af11580156114cc573d6000803e3d6000fd5b50505050856001600160a01b0316336001600160a01b0316896001600160a01b03167f3115d1449a7b732c986cba18244e897a450f61e1bb8d589cd2e69e6c8924f9f78460405161151f91815260200190565b60405180910390a493505050505b9392505050565b61153c6126cf565b61154584612f07565b61154f600b6126b3565b9061156d5760405162461bcd60e51b81526004016104b79190614c92565b506001600160a01b03848116600090815260026020526040908190209051636047157f60e01b8152600481019190915284821660248201528382166044820152908216606482015273__$88ad6b597226e6a1892b63b4d2c629f9bc$__90636047157f9060840160006040518083038186803b1580156115ec57600080fd5b505af4158015611600573d6000803e3d6000fd5b5050505061160d84612f16565b50505050565b61161b612684565b600081815260046020818152604080842060028082015495548351631f94a27560e31b81529351929673__$21c34b8e29a99d314827d472f0e1c85fe6$__966328fd92969689966001600160a01b0393841696949093169363fca513a89380840193908290030181865afa158015611697573d6000803e3d6000fd5b505050506040513d601f19601f820116820180604052508101906116bb9190615215565b6040516001600160e01b031960e087901b16815260048101949094526001600160a01b039283166024850152604484019190915216606482015260840160006040518083038186803b15801561171057600080fd5b505af4158015611724573d6000803e3d6000fd5b505050506117328133612ffb565b80546001820154600483015460028401546005850154604080518881523360208201526001600160a01b039687168183015294861660608601526080850193909352931660a083015260c082019290925290517f30bd5dd471bb61161c2ca6a1da177b7998123e088f4024140b0a292e4e935ac49181900360e00190a1805460018201546004830154600284015460058501546040517f2cdd53af4590a024859f3e2de4927202aaca8061751dc341496303366659f0f49561180c9589956001600160a01b039283169591831694909392909116916154a8565b60405180910390a15050565b600080611823612684565b600083815260046020819052604091829020600281015492516303fb2ff160e01b81523392810192909252602482018190526001600160a01b03909216604482018190529073__$21c34b8e29a99d314827d472f0e1c85fe6$__906303fb2ff19060640160006040518083038186803b15801561189f57600080fd5b505af41580156118b3573d6000803e3d6000fd5b5050505073__$4704719058cb47f66e81a2e55cafd4efea$__63f974324583600260008054906101000a90046001600160a01b03166001600160a01b031663fca513a86040518163ffffffff1660e01b8152600401602060405180830381865afa158015611925573d6000803e3d6000fd5b505050506040513d601f19601f820116820180604052508101906119499190615215565b6040518463ffffffff1660e01b815260040161196793929190615350565b602060405180830381865af4158015611984573d6000803e3d6000fd5b505050506040513d601f19601f820116820180604052508101906119a8919061536f565b92506119b5823330613293565b82546001840154600485015460058601546040519498507f2cdd53af4590a024859f3e2de4927202aaca8061751dc341496303366659f0f494611a0d948b946001600160a01b039182169491169290918891906154a8565b60405180910390a15050915091565b6001600160a01b0381166000908152600260205260408120611a3d90613530565b92915050565b611a4b6126cf565b600f805460ff191682151590811790915560ff1615611a90576040517f9e87fac88ff661f02d44f95383c817fece4bce600a3dab7a54406878b965e75290600090a150565b6040517fa45f47fdea8a1efdd9029a5691c7f759c32b7c698632b563573e155625d1693390600090a15b50565b600080600080600080611b70876002600360008b6001600160a01b03166001600160a01b03168152602001908152602001600020600760085460008054906101000a90046001600160a01b03166001600160a01b031663fca513a86040518163ffffffff1660e01b8152600401602060405180830381865afa158015611b47573d6000803e3d6000fd5b505050506040513d601f19601f82011682018060405250810190611b6b9190615215565b61359c565b93995091975090945092509050611b88868684613d2b565b935091939550919395565b611b9b614b8d565b506001600160a01b031660009081526002602081815260409283902083516101008082018652825482526001830154938201939093529281015493830193909352600383015460ff80821660608501529181048216151560808401526201000081048216151560a08401526301000000900416151560c082015260049091015460e082015290565b60606000600b546001600160401b03811115611c4157611c4161524e565b604051908082528060200260200182016040528015611c6a578160200160208202803683370190505b50905060005b600b54811015610bc25760008181526009602052604090205482516001600160a01b0390911690839083908110611ca957611ca9615388565b6001600160a01b039092166020928302919091019091015280611ccb816153b4565b915050611c70565b611cdb6126cf565b6001600160a01b0382166000908152600260205260409020819061160d82826154eb565b6001600160a01b0381166000908152600260205260408120611a3d90613d5f565b606060006008546001600160401b03811115611d3e57611d3e61524e565b604051908082528060200260200182016040528015611d67578160200160208202803683370190505b50905060005b600854811015610bc25760008181526007602052604090205482516001600160a01b0390911690839083908110611da657611da6615388565b6001600160a01b039092166020928302919091019091015280611dc8816153b4565b915050611d6d565b611dd8614b14565b611de0612684565b836001600160a01b0316856001600160a01b03161415611e0060146126b3565b90611e1e5760405162461bcd60e51b81526004016104b79190614c92565b5060135482108015611e3a5750676765c793fa10079d601b1b82115b611e4460136126b3565b90611e625760405162461bcd60e51b81526004016104b79190614c92565b506001600160a01b038516600090815260026020526040812090611e868585613db3565b9050600073__$4704719058cb47f66e81a2e55cafd4efea$__63d618a70e8a8a85600260008054906101000a90046001600160a01b03166001600160a01b031663fca513a86040518163ffffffff1660e01b8152600401602060405180830381865afa158015611efa573d6000803e3d6000fd5b505050506040513d601f19601f82011682018060405250810190611f1e9190615215565b60405160e087901b6001600160e01b03191681526001600160a01b039586166004820152938516602485015260448401929092526064830152909116608482015260a401602060405180830381865af4158015611f7f573d6000803e3d6000fd5b505050506040513d601f19601f82011682018060405250810190611fa3919061536f565b6001600160a01b038a8116600090815260026020526040808220928b16825290819020905163edc9b75b60e01b81526004810192909252602482018690526044820152606481018890526084810182905290915073__$21c34b8e29a99d314827d472f0e1c85fe6$__9063edc9b75b9060a40160006040518083038186803b15801561202e57600080fd5b505af4158015612042573d6000803e3d6000fd5b5061205c925050506001600160a01b038a16333089612e7d565b61206583612b5d565b6008830154600584015460405163b3f1c93d60e01b81526001600160a01b039092169163b3f1c93d916120b191339130918791600160801b90046001600160801b031690600401615477565b6020604051808303816000875af11580156120d0573d6000803e3d6000fd5b505050506040513d601f19601f820116820180604052508101906120f491906155b6565b50600783015461211a9084908a90600160281b90046001600160a01b0316600085612c17565b6007830154604051634efecaa560e01b8152600160281b9091046001600160a01b031690634efecaa590612154903090859060040161545e565b6020604051808303816000875af1158015612173573d6000803e3d6000fd5b505050506040513d601f19601f82011682018060405250810190612197919061536f565b5060408051610140810182523381526001600160a01b038b811660208301528a81169282019290925290881660608201526080810187905260a0810182905260c0810182905260125460e0820152600554610100820152600161012082015293508061220285613e5b565b61220b3361410d565b601254600554604080513381526001600160a01b038e811660208301528d1681830152606081018b90526080810186905260a081019390935260c0830191909152517f6ebdc7fd5ed78f22b708e683bb39cb395535c1427286a280dc405c0d4e5d34a29181900360e00190a15050505095945050505050565b61228c612684565b6001600160a01b03868116600090815260026020526040902060070154600160281b90041633146122bd60126126b3565b906122db5760405162461bcd60e51b81526004016104b79190614c92565b5061238685600260036000896001600160a01b03166001600160a01b03168152602001908152602001600020600760085460008054906101000a90046001600160a01b03166001600160a01b031663fca513a86040518163ffffffff1660e01b8152600401602060405180830381865afa15801561235d573d6000803e3d6000fd5b505050506040513d601f19601f820116820180604052508101906123819190615215565b61418f565b6001600160a01b038087166000908152600260205260409020600a01549086811690861614612463576123b98385612e71565b600003612407576001600160a01b03808716600081815260036020908152604080832086845291829052808320805460ff191690555190938b169160008051602061578383398151915291a3505b8115801561241457508315155b15612463576001600160a01b03808616600081815260036020908152604080832086845291829052808320805460ff191660011790555190938b16916000805160206157a383398151915291a3505b50505050505050565b612474612684565b6001600160a01b038316600090815260026020526040908190209051630eca322b60e01b8152600481018290526024810184905273__$21c34b8e29a99d314827d472f0e1c85fe6$__90630eca322b9060440160006040518083038186803b1580156124df57600080fd5b505af41580156124f3573d6000803e3d6000fd5b505050506007810154600160281b90046001600160a01b031661251582612b5d565b612523828683876000612c17565b6125386001600160a01b038616333087612e7d565b61254c6001600160a01b0386168286612ee8565b6005820154604051630ab714fb60e11b81526000916001600160a01b0384169163156e29f69161258e9188918a916001600160801b0390911690600401615434565b6020604051808303816000875af11580156125ad573d6000803e3d6000fd5b505050506040513d601f19601f820116820180604052508101906125d191906155b6565b90508015612626576001600160a01b038085166000818152600360209081526040808320600a8901548452909152808220805460ff191660011790555191928916916000805160206157a38339815191529190a35b61262f846141e3565b836001600160a01b0316866001600160a01b03167f7cfff908a4b583f36430b25d75964c458d8ede8a99bd61be750e97ee1b2f3a96338860405161267492919061545e565b60405180910390a3505050505050565b600f5460ff1615612695600c6126b3565b90611aba5760405162461bcd60e51b81526004016104b79190614c92565b6060611a3d8260368111156126ca576126ca6153cd565b614263565b60005460405163747e301f60e01b815233916001600160a01b03169063747e301f906126ff903090600401615201565b602060405180830381865afa15801561271c573d6000803e3d6000fd5b505050506040513d601f19601f820116820180604052508101906127409190615215565b6001600160a01b03161461269560106126b3565b80516001600160a01b03908116600090815260026020908152604080832081860151851684526003835281842084548351631f94a27560e31b81529351929691959491169263fca513a892600480830193928290030181865afa1580156127bf573d6000803e3d6000fd5b505050506040513d601f19601f820116820180604052508101906127e39190615215565b6003840154909150600090612883906128009060ff16600a6156b7565b6060870151875160405163b3596f0760e01b815261287d92916001600160a01b0388169163b3596f079161283691600401615201565b602060405180830381865afa158015612853573d6000803e3d6000fd5b505050506040513d601f19601f82011682018060405250810190612877919061536f565b90614363565b9061436f565b8551604080880151606089015160808a0151600854935163023b6c0960e41b81526001600160a01b039586166004820152602481018b9052928516604484015260648301919091526084820185905260a4820152600260c482015260e48101879052600761010482015261012481019190915290841661014482015290915073__$21c34b8e29a99d314827d472f0e1c85fe6$__906323b6c090906101640160006040518083038186803b15801561293a57600080fd5b505af415801561294e573d6000803e3d6000fd5b5050505061295b84612b5d565b6008840154602086015160408088015160608901516005890154925163b3f1c93d60e01b81526000956001600160a01b03169463b3f1c93d946129b69491939192600160801b9091046001600160801b031690600401615477565b6020604051808303816000875af11580156129d5573d6000803e3d6000fd5b505050506040513d601f19601f820116820180604052508101906129f991906155b6565b90508015612a2457600a850154600090815260018581016020526040909120805460ff191690911790555b612a5386600001518760a0015160008960c00151612a43576000612a49565b89606001515b8993929190612c17565b8560c0015115612adc578560a001516001600160a01b0316634efecaa5876020015188606001516040518363ffffffff1660e01b8152600401612a9792919061545e565b6020604051808303816000875af1158015612ab6573d6000803e3d6000fd5b505050506040513d601f19601f82011682018060405250810190612ada919061536f565b505b60408681015187516020808a01516060808c01516080808e015160068e015489516001600160a01b0396871681529687019390935297850197909752600160801b90046001600160801b0316908301529283169392909116917f4bc4b08d677fc59195d56e346dcb5cc5dc3b78b90d59f5d36740ae1b3d225db89101612674565b60088101546040805163b1bf962d60e01b815290516000926001600160a01b03169163b1bf962d9160048083019260209291908290030181865afa158015612ba9573d6000803e3d6000fd5b505050506040513d601f19601f82011682018060405250810190612bcd919061536f565b600583015460078401549192506001600160801b03600160801b820481169291169064ffffffffff16600080612c06878786888761437b565b9150915061246387878785856144b1565b612c426040518060800160405280600081526020016000815260200160008152602001600081525090565b600586015460088701546040805163b1bf962d60e01b81529051612ccf93600160801b90046001600160801b0316926001600160a01b03169163b1bf962d9160048083019260209291908290030181865afa158015612ca5573d6000803e3d6000fd5b505050506040513d601f19601f82011682018060405250810190612cc9919061536f565b90613db3565b6060820181905260098701546004808901546040516340e464b960e11b81526001600160a01b038a81169382019390935288831660248201526044810188905260648101879052608481019490945260a484015216906381c8c9729060c4016040805180830381865afa158015612d4a573d6000803e3d6000fd5b505050506040513d601f19601f82011682018060405250810190612d6e91906156c6565b6040830152602082018190526001600160801b031015612d8e60186126b3565b90612dac5760405162461bcd60e51b81526004016104b79190614c92565b5060408101516001600160801b031015612dc660196126b3565b90612de45760405162461bcd60e51b81526004016104b79190614c92565b506020818101516040808401516001600160801b03808416600160801b82841681029190911760068d015560058c0154845195865295850192909252848116848401529304909216606082015290516001600160a01b038716917f4063a2df84b66bb796eb32622851d833e57b2c4292900c18f963af8808b13e35919081900360800190a2505050505050565b600061152d82846156ea565b6040516001600160a01b038085166024830152831660448201526064810182905261160d9085906323b872dd60e01b906084015b60408051601f198184030181529190526020810180516001600160e01b03166001600160e01b0319909316929092179091526145c5565b61108c8363a9059cbb60e01b8484604051602401612eb192919061545e565b6001600160a01b03163b151590565b6008546010548110612f28600f6126b3565b90612f465760405162461bcd60e51b81526004016104b79190614c92565b506001600160a01b0382166000908152600260205260408120600a0154151580612fa557506000805260076020527f6d5257204ebe7d88fd91ae87941cb2dd9d8062b64ae5a2bd2d28ec40b9fbf6df546001600160a01b038481169116145b90508061108c576001600160a01b0383166000818152600260209081526040808320600a018690558583526007909152902080546001600160a01b0319169091179055612ff3826001615701565b600855505050565b6002828101546001600160a01b031660009081526020919091526040902061302281612b5d565b600881015460058481015490830154604051637a94c56560e11b81526001600160a01b039093169263f5298aca92613070923092600160801b9091046001600160801b031690600401615434565b600060405180830381600087803b15801561308a57600080fd5b505af115801561309e573d6000803e3d6000fd5b5050506002840154600783015460058601546130d3935084926001600160a01b0390811692600160281b900416906000612c17565b60028301546040516370a0823160e01b81526000916001600160a01b0316906370a0823190613106903090600401615201565b602060405180830381865afa158015613123573d6000803e3d6000fd5b505050506040513d601f19601f82011682018060405250810190613147919061536f565b9050613160846005015482612e7190919063ffffffff16565b60000361319157306000908152600360209081526040808320600a86015484526001019091529020805460ff191690555b6007820154600585015460028601546131c3926001600160a01b03918216928792600160281b90920490911690612e7d565b600782015460058501546040516388dd91a160e01b8152600160281b9092046001600160a01b0316916388dd91a1916132019130919060040161545e565b600060405180830381600087803b15801561321b57600080fd5b505af115801561322f573d6000803e3d6000fd5b50505060088501546000908152600460205260409020600901805460ff191690555060068401546003850154613272916001600160a01b03909116908590612ee8565b6004840154600185015461160d916001600160a01b03909116908590612ee8565b60008084600601549050808560050154116132c2576000915060048501546132bc908390614697565b506132ca565b846004015491505b506002848101546001600160a01b031660009081526020919091526040902060058501546132f782612b5d565b60088201546005830154604051637a94c56560e11b81526001600160a01b039092169163f5298aca916133429188918691600160801b9091046001600160801b031690600401615434565b600060405180830381600087803b15801561335c57600080fd5b505af1158015613370573d6000803e3d6000fd5b505050600287015460078401546133a0925084916001600160a01b0390811691600160281b900416846000612c17565b60028601546040516370a0823160e01b81526000916001600160a01b0316906370a08231906133d3908890600401615201565b602060405180830381865afa1580156133f0573d6000803e3d6000fd5b505050506040513d601f19601f82011682018060405250810190613414919061536f565b90506134208183612e71565b60000361345a576001600160a01b0385166000908152600360209081526040808320600a87015484526001019091529020805460ff191690555b60078301546002880154613483916001600160a01b0391821691600160281b9091041684612ee8565b60078301546040516388dd91a160e01b8152600160281b9091046001600160a01b0316906388dd91a1906134bd908890869060040161545e565b600060405180830381600087803b1580156134d757600080fd5b505af11580156134eb573d6000803e3d6000fd5b50505060088801546000908152600460205260409020600901805460ff1916905550506001860154613527906001600160a01b03168685612ee8565b50509392505050565b600781015460009064ffffffffff908116904216810361356357505060050154600160801b90046001600160801b031690565b60058301546006840154600091613594916001600160801b03600160801b92839004811692612cc9920416856146a3565b949350505050565b6000808080806001815b8881101561360557600081815260208c9052604090205460ff161515600114806135e5575060008181526001808d0160205260409091205460ff161515145b156135f35760009150613605565b806135fd816153b4565b9150506135a6565b508015613625576000806000806000199550955095509550955050613d1d565b506136c3604051806102400160405280600081526020016000815260200160008152602001600081526020016000815260200160008152602001600081526020016000815260200160008152602001600081526020016000815260200160008152602001600081526020016000815260200160001515815260200160006001600160a01b031681526020016000151581526020016000151581525090565b600060e08201525b878160e001511015613c7c5760e0810151600090815260208b9052604090205460ff168061370e575060e0810151600090815260018b01602052604090205460ff165b15613c64578860008260e00151815260200190815260200160002060009054906101000a90046001600160a01b0316816101e001906001600160a01b031690816001600160a01b03168152505060008b6000836101e001516001600160a01b03166001600160a01b031681526020019081526020016000206040518061014001604052908160008201604051806101000160405290816000820154815260200160018201548152602001600282015481526020016003820160009054906101000a900460ff1660ff1660ff1681526020016003820160019054906101000a900460ff161515151581526020016003820160029054906101000a900460ff161515151581526020016003820160039054906101000a900460ff1615151515815260200160048201548152505081526020016005820160009054906101000a90046001600160801b03166001600160801b03166001600160801b031681526020016005820160109054906101000a90046001600160801b03166001600160801b03166001600160801b031681526020016006820160009054906101000a90046001600160801b03166001600160801b03166001600160801b031681526020016006820160109054906101000a90046001600160801b03166001600160801b03166001600160801b031681526020016007820160009054906101000a900464ffffffffff1664ffffffffff1664ffffffffff1681526020016007820160059054906101000a90046001600160a01b03166001600160a01b03166001600160a01b031681526020016008820160009054906101000a90046001600160a01b03166001600160a01b03166001600160a01b031681526020016009820160009054906101000a90046001600160a01b03166001600160a01b03166001600160a01b03168152602001600a8201548152505090508060000151600001518260a00181815250508060000151602001518260c001818152505080600001516060015160ff168260800181815250508160800151600a613a059190615719565b60208301526101e082015160405163b3596f0760e01b81526001600160a01b038a169163b3596f0791613a3b9190600401615201565b602060405180830381865afa158015613a58573d6000803e3d6000fd5b505050506040513d601f19601f82011682018060405250810190613a7c919061536f565b825260c082015115801590613aa4575060e0820151600090815260208c9052604090205460ff165b15613ba0578060c001516001600160a01b03166370a082318e6040518263ffffffff1660e01b8152600401613ad99190615201565b602060405180830381865afa158015613af6573d6000803e3d6000fd5b505050506040513d601f19601f82011682018060405250810190613b1a919061536f565b6040830181905260208301518351600092613b39929161287d91614363565b610120840151909150613b4c9082614697565b61012084015260a0830151613b7290613b66908390614363565b61016085015190614697565b61016084015260c0830151613b9890613b8c908390614363565b61018085015190614697565b610180840152505b60e0820151600090815260018c01602052604090205460ff1615613c62578060e001516001600160a01b03166370a082318e6040518263ffffffff1660e01b8152600401613bee9190615201565b602060405180830381865afa158015613c0b573d6000803e3d6000fd5b505050506040513d601f19601f82011682018060405250810190613c2f919061536f565b6060830181905260208301518351613c5b92613c4f929161287d91614363565b61014084015190614697565b6101408301525b505b60e08101805190613c74826153b4565b9052506136cb565b600081610120015111613c90576000613ca5565b610120810151610160820151613ca59161436f565b610160820152610120810151613cbc576000613cd1565b610120810151610180820151613cd19161436f565b6101808201819052610120820151610140830151613cee926146b0565b610100820181905261012082015161014083015161016084015161018090940151919850965091945090925090505b965096509650965096915050565b600080613d3885846146d7565b905083811015613d4c57600091505061152d565b613d568185612e71565b95945050505050565b600781015460009064ffffffffff9081169042168103613d8b575050600501546001600160801b031690565b60058301546006840154600091613594916001600160801b0391821691612cc991168561474f565b6000821580613dc0575081155b15613dcd57506000611a3d565b81613de46002676765c793fa10079d601b1b61573b565b613df0906000196156ea565b613dfa919061573b565b831115613e0760046126b3565b90613e255760405162461bcd60e51b81526004016104b79190614c92565b50676765c793fa10079d601b1b613e3d60028261573b565b613e47848661574f565b613e519190615701565b61152d919061573b565b8060046000600554815260200190815260200160002060008201518160000160006101000a8154816001600160a01b0302191690836001600160a01b0316021790555060208201518160010160006101000a8154816001600160a01b0302191690836001600160a01b0316021790555060408201518160020160006101000a8154816001600160a01b0302191690836001600160a01b0316021790555060608201518160030160006101000a8154816001600160a01b0302191690836001600160a01b031602179055506080820151816004015560a0820151816005015560c0820151816006015560e0820151816007015561010082015181600801556101208201518160090160006101000a81548160ff021916908315150217905550905050600554600460006005548152602001908152602001600020600801819055506006600082600001516001600160a01b03166001600160a01b031681526020019081526020016000208190806001815401808255809150506001900390600052602060002090600a020160009091909190915060008201518160000160006101000a8154816001600160a01b0302191690836001600160a01b0316021790555060208201518160010160006101000a8154816001600160a01b0302191690836001600160a01b0316021790555060408201518160020160006101000a8154816001600160a01b0302191690836001600160a01b0316021790555060608201518160030160006101000a8154816001600160a01b0302191690836001600160a01b031602179055506080820151816004015560a0820151816005015560c0820151816006015560e0820151816007015561010082015181600801556101208201518160090160006101000a81548160ff021916908315150217905550505060055460016141079190615701565b60055550565b6001600160a01b0381166000908152600d602052604090205460ff1615156001148061418b576001600160a01b0382166000818152600d60209081526040808320805460ff19166001908117909155600b548452600c90925290912080546001600160a01b031916909217909155600e5461418791615701565b600e555b5050565b600061419f87878787878761359c565b945050505050670de0b6b3a76400008110156141bb601e6126b3565b906141d95760405162461bcd60e51b81526004016104b79190614c92565b5050505050505050565b6001600160a01b0381166000908152600a602052604090205460ff1615156001148061418b576001600160a01b0382166000818152600a60209081526040808320805460ff19166001908117909155600b805485526009909352922080546001600160a01b031916909317909255905461425c91615701565b600b555050565b60608160000361428a5750506040805180820190915260018152600360fc1b602082015290565b8160005b81156142b4578061429e816153b4565b91506142ad9050600a8361573b565b915061428e565b6000816001600160401b038111156142ce576142ce61524e565b6040519080825280601f01601f1916602001820160405280156142f8576020820181803683370190505b5090505b84156135945761430d6001836156ea565b915061431a600a8661576e565b614325906030615701565b60f81b81838151811061433a5761433a615388565b60200101906001600160f81b031916908160001a90535061435c600a8661573b565b94506142fc565b600061152d828461574f565b600061152d828461573b565b600685015460009081906001600160801b03168585821561448b5760006143a2848861474f565b90506143ae818a613db3565b92506001600160801b038311156143c560156126b3565b906143e35760405162461bcd60e51b81526004016104b79190614c92565b5060058b0180546001600160801b0319166001600160801b03851617905589156144895760068b015460009061442990600160801b90046001600160801b0316896146a3565b9050614435818a613db3565b92506001600160801b0383111561444c60166126b3565b9061446a5760405162461bcd60e51b81526004016104b79190614c92565b505060058b0180546001600160801b03808516600160801b0291161790555b505b600799909901805464ffffffffff19164264ffffffffff16179055989650505050505050565b6144e36040518060a0016040528060008152602001600081526020016000815260200160008152602001600081525090565b6004860154608082018190526000036144fc57506109e5565b6145068585613db3565b60208201526145158583613db3565b80825260208201516145279190612e71565b60408201819052608082015161453d91906146d7565b60608201819052156145bd5760078601546060820151604051637df5bd3b60e01b8152600481019190915260248101859052600160281b9091046001600160a01b031690637df5bd3b90604401600060405180830381600087803b1580156145a457600080fd5b505af11580156145b8573d6000803e3d6000fd5b505050505b505050505050565b600061461a826040518060400160405280602081526020017f5361666545524332303a206c6f772d6c6576656c2063616c6c206661696c6564815250856001600160a01b03166147939092919063ffffffff16565b80519091501561108c578080602001905181019061463891906155b6565b61108c5760405162461bcd60e51b815260206004820152602a60248201527f5361666545524332303a204552433230206f7065726174696f6e20646964206e6044820152691bdd081cdd58d8d9595960b21b60648201526084016104b7565b600061152d8284615701565b600061152d8383426147a2565b6000826000036146c3575060001961152d565b613594836146d186856146d7565b906148a1565b60008215806146e4575081155b156146f157506000611a3d565b816146ff600261271061573b565b61470b906000196156ea565b614715919061573b565b83111561472260046126b3565b906147405760405162461bcd60e51b81526004016104b79190614c92565b50612710613e3d60028261573b565b6000806147634264ffffffffff8516612e71565b9050613594676765c793fa10079d601b1b6301e133806147838785614363565b61478d919061573b565b90614697565b60606135948484600085614951565b6000806147b68364ffffffffff8616612e71565b9050806000036147d457676765c793fa10079d601b1b91505061152d565b60006147e16001836156ea565b90506000600283116147f45760006147ff565b6147ff6002846156ea565b905060006148116301e133808961573b565b9050600061481f8280613db3565b9050600061482d8284613db3565b905060006002614841846128778a8a614363565b61484b919061573b565b9050600060066148618461287789818d8d614363565b61486b919061573b565b90506148918161478d84816148808a8e614363565b676765c793fa10079d601b1b61478d565b9c9b505050505050505050505050565b60008115156148b060056126b3565b906148ce5760405162461bcd60e51b81526004016104b79190614c92565b5060006148dc60028461573b565b9050670de0b6b3a76400006148f3826000196156ea565b6148fd919061573b565b84111561490a60046126b3565b906149285760405162461bcd60e51b81526004016104b79190614c92565b50828161493d670de0b6b3a76400008761574f565b6149479190615701565b613594919061573b565b6060824710156149b25760405162461bcd60e51b815260206004820152602660248201527f416464726573733a20696e73756666696369656e742062616c616e636520666f6044820152651c8818d85b1b60d21b60648201526084016104b7565b6149bb85612f07565b614a075760405162461bcd60e51b815260206004820152601d60248201527f416464726573733a2063616c6c20746f206e6f6e2d636f6e747261637400000060448201526064016104b7565b600080866001600160a01b03168587604051614a239190615232565b60006040518083038185875af1925050503d8060008114614a60576040519150601f19603f3d011682016040523d82523d6000602084013e614a65565b606091505b5091509150614a75828286614a80565b979650505050505050565b60608315614a8f57508161152d565b825115614a9f5782518084602001fd5b8160405162461bcd60e51b81526004016104b79190614c92565b604051806101400160405280614acd614b8d565b815260006020820181905260408201819052606082018190526080820181905260a0820181905260c0820181905260e0820181905261010082018190526101209091015290565b60405180610140016040528060006001600160a01b0316815260200160006001600160a01b0316815260200160006001600160a01b0316815260200160006001600160a01b0316815260200160008152602001600081526020016000815260200160008152602001600081526020016000151581525090565b604051806101000160405280600081526020016000815260200160008152602001600060ff168152602001600015158152602001600015158152602001600015158152602001600081525090565b6001600160a01b0381168114611aba57600080fd5b8015158114611aba57600080fd5b600080600080600060a08688031215614c1657600080fd5b8535614c2181614bdb565b94506020860135614c3181614bdb565b93506040860135614c4181614bdb565b9250606086013591506080860135614c5881614bf0565b809150509295509295909350565b60005b83811015614c81578181015183820152602001614c69565b8381111561160d5750506000910152565b6020815260008251806020840152614cb1816040850160208701614c66565b601f01601f19169190910160400192915050565b600060208284031215614cd757600080fd5b5035919050565b60008060408385031215614cf157600080fd5b8235614cfc81614bdb565b91506020830135614d0c81614bdb565b809150509250929050565b60008060008060808587031215614d2d57600080fd5b8435614d3881614bdb565b935060208501359250604085013591506060850135614d5681614bdb565b939692955090935050565b600060208284031215614d7357600080fd5b813561152d81614bdb565b80518252602081015160208301526040810151604083015260ff606082015116606083015260808101511515608083015260a0810151151560a083015260c0810151151560c083015260e081015160e08301525050565b6001600160801b03169052565b6001600160a01b03169052565b600061022082019050614e03828451614d7e565b6020830151610100614e1781850183614dd5565b60408501519150610120614e2d81860184614dd5565b60608601519250614e42610140860184614dd5565b60808601519250614e57610160860184614dd5565b60a086015164ffffffffff1661018086015260c08601519250614e7e6101a0860184614de2565b60e08601519250614e936101c0860184614de2565b818601519250614ea76101e0860184614de2565b8086015161020086015250505092915050565b6020808252825182820181905260009190848201906040850190845b81811015614efb5783516001600160a01b031683529284019291840191600101614ed6565b50909695505050505050565b60008060408385031215614f1a57600080fd5b8235614f2581614bdb565b91506020830135614d0c81614bf0565b614f40828251614de2565b6020810151614f526020840182614de2565b506040810151614f656040840182614de2565b506060810151614f786060840182614de2565b506080810151608083015260a081015160a083015260c081015160c083015260e081015160e08301526101008082015181840152506101208082015161160d8285018215159052565b6020808252825182820181905260009190848201906040850190845b81811015614efb57614ff0838551614f35565b928401926101409290920191600101614fdd565b60008060006060848603121561501957600080fd5b833561502481614bdb565b925060208401359150604084013561503b81614bdb565b809150509250925092565b6000806000806080858703121561505c57600080fd5b843561506781614bdb565b9350602085013561507781614bdb565b9250604085013561508781614bdb565b91506060850135614d5681614bdb565b600080604083850312156150aa57600080fd5b82356150b581614bdb565b946020939093013593505050565b6000602082840312156150d557600080fd5b813561152d81614bf0565b6101008101611a3d8284614d7e565b60008082840361012081121561510457600080fd5b833561510f81614bdb565b9250610100601f198201121561512457600080fd5b506020830190509250929050565b600080600080600060a0868803121561514a57600080fd5b853561515581614bdb565b9450602086013561516581614bdb565b9350604086013561517581614bdb565b94979396509394606081013594506080013592915050565b6101408101611a3d8284614f35565b60008060008060008060c087890312156151b557600080fd5b86356151c081614bdb565b955060208701356151d081614bdb565b945060408701356151e081614bdb565b959894975094956060810135955060808101359460a0909101359350915050565b6001600160a01b0391909116815260200190565b60006020828403121561522757600080fd5b815161152d81614bdb565b60008251615244818460208701614c66565b9190910192915050565b634e487b7160e01b600052604160045260246000fd5b6000806040838503121561527757600080fd5b8251915060208301516001600160401b038082111561529557600080fd5b818501915085601f8301126152a957600080fd5b8151818111156152bb576152bb61524e565b604051601f8201601f19908116603f011681019083821181831017156152e3576152e361524e565b816040528281528860208487010111156152fc57600080fd5b61530d836020830160208801614c66565b80955050505050509250929050565b600181811c9082168061533057607f821691505b602082108103610bc257634e487b7160e01b600052602260045260246000fd5b92835260208301919091526001600160a01b0316604082015260600190565b60006020828403121561538157600080fd5b5051919050565b634e487b7160e01b600052603260045260246000fd5b634e487b7160e01b600052601160045260246000fd5b6000600182016153c6576153c661539e565b5060010190565b634e487b7160e01b600052602160045260246000fd5b8581526020810185905260a081016002851061540f57634e487b7160e01b600052602160045260246000fd5b60408201949094526001600160a01b0392909216606083015260809091015292915050565b6001600160a01b0393909316835260208301919091526001600160801b0316604082015260600190565b6001600160a01b03929092168252602082015260400190565b6001600160a01b03948516815292909316602083015260408201526001600160801b03909116606082015260800190565b9586526001600160a01b03948516602087015292841660408601526060850191909152909116608083015260a082015260c00190565b60008135611a3d81614bf0565b81358155602082013560018201556040820135600282015560038101606083013560ff811680821461551c57600080fd5b825460ff19161782555061554f615535608085016154de565b82805461ff00191691151560081b61ff0016919091179055565b61557a61555e60a085016154de565b82805462ff0000191691151560101b62ff000016919091179055565b6155a761558960c085016154de565b82805463ff000000191691151560181b63ff00000016919091179055565b5060e082013560048201555050565b6000602082840312156155c857600080fd5b815161152d81614bf0565b600181815b8085111561560e5781600019048211156155f4576155f461539e565b8085161561560157918102915b93841c93908002906155d8565b509250929050565b60008261562557506001611a3d565b8161563257506000611a3d565b816001811461564857600281146156525761566e565b6001915050611a3d565b60ff8411156156635761566361539e565b50506001821b611a3d565b5060208310610133831016604e8410600b8410161715615691575081810a611a3d565b61569b83836155d3565b80600019048211156156af576156af61539e565b029392505050565b600061152d60ff841683615616565b600080604083850312156156d957600080fd5b505080516020909101519092909150565b6000828210156156fc576156fc61539e565b500390565b600082198211156157145761571461539e565b500190565b600061152d8383615616565b634e487b7160e01b600052601260045260246000fd5b60008261574a5761574a615725565b500490565b60008160001904831182151516156157695761576961539e565b500290565b60008261577d5761577d615725565b50069056fe44c58d81365b66dd4b1a7f36c25aa97b8c71c361ee4937adc1a00000227db5dd00058a56ea94653cdf4f152d227ace22d4c00ad99e2a43f58cb7d9e3feb295f2a26469706673582212203a8214f110462fd41c41de2c4899f68f2571a0cf18092198bca09a6c69e608b064736f6c634300080e0033",
  "linkReferences": {
    "contracts/Library/Logic/GenericLogic.sol": {
      "GenericLogic": [
        {
          "length": 20,
          "start": 2505
        },
        {
          "length": 20,
          "start": 2748
        },
        {
          "length": 20,
          "start": 6995
        },
        {
          "length": 20,
          "start": 8486
        }
      ]
    },
    "contracts/Library/Logic/ReserveLogic.sol": {
      "ReserveLogic": [
        {
          "length": 20,
          "start": 6225
        }
      ]
    },
    "contracts/Library/Logic/ValidationLogic.sol": {
      "ValidationLogic": [
        {
          "length": 20,
          "start": 3867
        },
        {
          "length": 20,
          "start": 4519
        },
        {
          "length": 20,
          "start": 5454
        },
        {
          "length": 20,
          "start": 6368
        },
        {
          "length": 20,
          "start": 6916
        },
        {
          "length": 20,
          "start": 8851
        },
        {
          "length": 20,
          "start": 10052
        },
        {
          "length": 20,
          "start": 11166
        }
      ]
    }
  },
  "deployedLinkReferences": {
    "contracts/Library/Logic/GenericLogic.sol": {
      "GenericLogic": [
        {
          "length": 20,
          "start": 1839
        },
        {
          "length": 20,
          "start": 2082
        },
        {
          "length": 20,
          "start": 6329
        },
        {
          "length": 20,
          "start": 7820
        }
      ]
    },
    "contracts/Library/Logic/ReserveLogic.sol": {
      "ReserveLogic": [
        {
          "length": 20,
          "start": 5559
        }
      ]
    },
    "contracts/Library/Logic/ValidationLogic.sol": {
      "ValidationLogic": [
        {
          "length": 20,
          "start": 3201
        },
        {
          "length": 20,
          "start": 3853
        },
        {
          "length": 20,
          "start": 4788
        },
        {
          "length": 20,
          "start": 5702
        },
        {
          "length": 20,
          "start": 6250
        },
        {
          "length": 20,
          "start": 8185
        },
        {
          "length": 20,
          "start": 9386
        },
        {
          "length": 20,
          "start": 10500
        }
      ]
    }
  }
}